:100000000C942A030C94262A0C9447030C9447035F
:100010000C9447030C9447030C9447030C94470338
:100020000C9447030C9447030C9446230C9402232E
:100030000C9443240C9447030C9447030C944703FB
:100040000C9447030C9447030C9447030C94470308
:100050000C9447030C941F240C9447030C944703FF
:100060000C9447030C9447030C9447030C944703E8
:100070000C9447030C9447030C9447030C944703D8
:100080000C9447030C9447030C9447030C944703C8
:100090000C9447030C9447030C9447030C944703B8
:1000A0000C9447030C9447030C9447030501090281
:1000B000A10185020901A1000509190129081500FE
:1000C0002501950875018102050109300931158165
:1000D000257F95027508810609381581257F9501D0
:1000E00075088106050C0A38021581257F95017572
:1000F000088106C0C005010980A101850319012AF4
:10010000B700150126B700950175108100C0050CD8
:100110000901A101850419012AA002150126A002E6
:10012000950175108100C00660FF0961A101096297
:10013000150026FF00952075088102096315002629
:10014000FF00952075089102C005010906A101056F
:100150000719E029E7150025019508750181029529
:1001600001750881010507190029FF150026FF0008
:100170009506750881000508190129059505750181
:100180009102950175039101C0000000000000007C
:10019000000000000000000000000000000000005F
:1001A000000000000000000000000000007E0F00C2
:1001B000D4FFFFFFC700000078000000000000002F
:1001C000002A2B28000000000000000000000000B2
:1001D0000000000029000000002C1E3420212224F1
:1001E000342627252E362D3738271E1F202122237F
:1001F0002425263333362E37381F04050607080911
:100200000A0B0C0D0E0F10111213141516171819D6
:100210001A1B1C1D2F3130232D3504050607080934
:100220000A0B0C0D0E0F10111213141516171819B6
:100230001A1B1C1D2F3130354C0001010101010139
:10024000010101020202020202020202030303038D
:10025000030303030404040404040405050505055D
:10026000060606060607070707070808080809091B
:1002700009090A0A0A0B0B0B0C0C0C0D0D0D0E0EC6
:100280000E0F0F0F10101111111212131314141559
:100290001516161717181819191A1A1B1B1C1D1DCD
:1002A0001E1E1F2020212222232424252626272823
:1002B00029292A2B2C2D2D2E2F3031323233343553
:1002C000363738393A3B3C3D3E3F40414243444556
:1002D000464748494A4C4D4E4F5051535455565835
:1002E000595A5B5D5E5F616264656668696B6C6DDF
:1002F0006F7072737577787A7B7D7E808283858755
:10030000888A8C8E8F91939596989A9C9EA0A2A392
:10031000A5A7A9ABADAFB1B3B5B7BABCBEC0C2C497
:10032000C6C9CBCDCFD1D4D6D8DBDDDFE2E4E7E957
:10033000EBEEF0F3F5F8FAFDFF0001020304050609
:100340000708090A0B0C0D0E0F10111213141516C5
:100350001718191A1B1C1D1E1F202122414243443D
:10036000453C3D3E3F403738393A3B3233343536F1
:100370002D2E2F303128292A2B2C232425262729DE
:10038000001E001F002000210022002F0035001455
:10039000001A000800150017002D002B000400169D
:1003A00000070009000A004C00E1001D001B0006C8
:1003B00000190005002C00E000E300E20035040114
:1003C0007F2C004C00460027002600250024002337
:1003D0000030003100130012000C0018001C002E29
:1003E00000340033000F000E000D000B002A00E562
:1003F000003800370036001000110028004F00526E
:100400000051005000027F28002A0044003A003BBF
:10041000003C003D003E002F0235021E021F02205C
:1004200002210222022D022B001E001F00200021AB
:100430000022004C00E100230024002500260027B4
:10044000002C00E000E300E2003504017F2C004CAA
:1004500000450043004200410040003F00300231AF
:1004600002270226022502240223022E023402332E
:10047000020F000E000D000B002A00E500380237C5
:100480000236021000110028004D004B004E004AB9
:1004900000027F28002A0044003A003B003C003D57
:1004A000003E002F0235021E021F022002210222FE
:1004B000022D022B001E001F002000210022004CF4
:1004C00000E100230024002500260027002C00E086
:1004D00000E300E2003504017F2C004C004500439E
:1004E000004200410040003F003002310227022656
:1004F000022502240223022E02340233020F000ED0
:10050000000D000B002A00077F067F37023602101D
:100510000011002800057F047F4E004A00027F285A
:10052000002A00010001000100010001000100019A
:10053000000100010020782178247823780100014F
:1005400000010002780678047803780100010001B8
:100550000001000100010001000100010001000193
:100560000001000100010001000100010001000183
:100570000001000100010001000100277828782512
:10058000782678010001000100010001000100014E
:100590000001000100010001000100010001000153
:1005A000000100010001000100010001000100093B
:1005B000025B00030100A0FA09040000010301012D
:1005C00000092111010001224000070581030800F4
:1005D00001090401000203000000092111010001CA
:1005E00022220007058203200001070503032000E3
:1005F00001090402000103000000092111010001AA
:10060000227B000705840320000112010002000084
:100610000008EEFE606000010102000118034500C1
:10062000720067006F0044006100730068005600AC
:10063000390039000000180354006F007500630092
:100640006800730065006E0073006F0072000000A8
:100650000403090411241FBECFEFDAE0DEBFCDBFD3
:1006600011E0A0E0B1E0E2E7FAE502C005900D92EA
:10067000A43DB107D9F724E0A4EDB1E001C01D927B
:10068000AA31B207E1F70E946A240C94C82C0C949A
:100690000000E8EDF0E080818E7F80831092E20020
:1006A0001092DA001092E100A0EEB0E08C9181602F
:1006B0008C9380818F77808319BCA7EDB0E08C91FB
:1006C0008E7F8C9380818F7E80831092FF030895AC
:1006D0002091E4003091E50095E6A9012091EC001D
:1006E000822F817020FF06C08091E80080FF06C045
:1006F00080E008952091E80022FD1AC080910C044A
:10070000882389F0853089F08091EB0085FD0FC04A
:100710002091E4003091E50042175307F9F291501F
:10072000E1F684E0089582E0089583E0089581E091
:10073000089580910E0487FF13C08091E80082FF26
:1007400006C08091E8008B778093E80004C0809118
:100750000C048111F2CF089580910C048823D9F301
:100760008091E80080FFF8CF8091E8008E77ECCF91
:10077000982F9093E900242F762F50E0891731F0BD
:100780007091EC002091ED005091F00021FD07C028
:100790009F5F973071F78093E90081E00895309171
:1007A000EB003E7F3093EB003091ED003D7F3093C6
:1007B000ED003091EB0031603093EB007093EC0072
:1007C0002093ED005093F0002091EE0027FDE0CF44
:1007D00080E00895B0E0A0E0E0EFF3E00C94522B4D
:1007E000C8EDD0E088818F7E8883E7EDF0E08081DE
:1007F0008160808384E082BF81E08093FF038881F1
:100800008E7F888302EE10E0F80110821092DA00E9
:1008100081EEC82ED12CF601108288818F778883D3
:1008200088818068888388818F7D888319BC109235
:100830000C0410920D0410920B0410920A0490EE16
:10084000E92EF12CF70180818B7F80838881816084
:10085000888342E060E080E00E94B803F601808176
:100860008E7F8083F80180818160808380818860B1
:100870008083F70180818E7F808388818061888377
:10088000CDB7DEB7E8E00C946E2BFC018091140428
:100890009091150486179707A0F06115710529F44A
:1008A0009091E8009E779093E80090E061157105C3
:1008B00051F4911108C08091E80082FF34C080E0BB
:1008C0000895BC01F2CF80910C048823C1F18530DA
:1008D000C1F18091E80083FD30C08091E80082FD85
:1008E000EACF8091E80080FFE1CF8091F300209172
:1008F000F200382F6115710519F02830310558F0D4
:1009000091E02830310509F090E02091E8002E7741
:100910002093E800CBCF81918093F1006150710961
:100920002F5F3F4FE7CF80910C04882341F0853043
:1009300041F08091E80083FFBECF81E0089582E01E
:10094000089583E0089580910104089587E797E76B
:10095000909301088093000888E19AE00FB6F8941C
:10096000A895809360000FBE90936000FFCF9C011C
:100970004FB7F8948091FB039091FC03A091FD0385
:10098000B091FE034FBF821B930B08952FB7F894CD
:100990006091FB037091FC038091FD039091FE0335
:1009A0002FBF08952FB7F8948091FB039091FC031B
:1009B000A091FD03B091FE032FBF0895A3E0B0E026
:1009C000E4EEF4E00C94582B2091F8033091F903F5
:1009D00028173907A1F09093F9038093F803E09169
:1009E000F603F091F703309751F024E029839B83BD
:1009F0008A830680F781E02DCE0101960995239622
:100A0000E2E00C94742BA3E0B0E0E9E0F5E00C9494
:100A1000582B2091F4033091F50328173907A1F0E2
:100A20009093F5038093F403E091F603F091F703BC
:100A3000309751F023E029839B838A830680F781D6
:100A4000E02DCE01019609952396E2E00C94742BDB
:100A5000E091F603F091F703309739F022E0DC01E2
:100A60002C930480F581E02D09950895FC01680F11
:100A7000791F8FEF91E32191822728E030E087FFF3
:100A800009C0880F892721503109C9F7E617F707F0
:100A900091F70895880FF7CFFA01811101C0FB018A
:100AA000099508958091EF03982F9E7F71F48091AE
:100AB000EF03817082608093EF038091F2038739A6
:100AC00018F086E98093F2030895843080F7F5CF1B
:100AD0000E94D2049C019091050380910603982BFB
:100AE00021F03093FC022093FB0290910703809148
:100AF0000803982B21F03093FA022093F90283E047
:100B000093E00E94280508958091F80280FD16C0A8
:100B100081FD16C082FD16C08091F7028823A1F0E6
:100B2000883280F428E0829FC001112468E270E0DE
:100B30000E94A12B862F672B39F0089582E008953B
:100B400084E0089588E0089581E008958091F80296
:100B500080FD14C081FD14C082FD16C08091F60294
:100B6000882381F08E3180F420E5829FC00111241A
:100B70006EE170E00E94A12B862F089584E1089514
:100B800088E2089588E0089580E5089580E008955A
:100B900063E070E08EE692E00E94360590916D026F
:100BA000891318C0E0916E02EC30A4F488E0E802EA
:100BB000F0011124E050FF4F0680F781E02D3097BF
:100BC00049F021E932E04091700261E772E08091E2
:100BD0006F0209950895E2E5F2E0858D809340016A
:100BE000868D809353010895F894E82FE295EF7075
:100BF000F0E031A1282F2F7081E090E001C0880F34
:100C00002A95EAF7982F9095932391A392A1892B87
:100C100082A3789408959091D70292FF06C0282F5E
:100C200028712830F9F4877F846093FF06C0282F4D
:100C300028712831F1F4877E84612091D80220FF49
:100C400006C0382F38713830D9F4877F816021FF92
:100C500006C0282F28712831D1F4877E816194FD48
:100C6000877E0895282F24712430F9F68B7F8860C1
:100C7000DCCF282F2471243101F78B7E8861DDCFF2
:100C8000382F3171313019F78E7F8860E0CF282FEF
:100C90002171213121F78E7E8861E1CFCF93DF93DF
:100CA000EC0182389105B9F108F041C0813391051A
:100CB00009F49FC050F58932910509F48FC08A97D5
:100CC00009F49EC0C11520E5D20708F0BDC0C115CA
:100CD00030E4D30708F00AC1C03ED10508F0A5C032
:100CE000CD3CD10508F000C1C83AD10508F08FC04D
:100CF000C53AD10508F0F0C0C130D10539F12097CF
:100D000029F1C430D10510F546C08533910509F4A9
:100D100060C0C997B9F68091D702837009F044C1C9
:100D20008091D80283FF12C0C9E2D0E00FC0833E99
:100D30009105A1F178F4803E910509F1823E91057B
:100D400009F0C0CF8091D70282FD21C0CE01DF9192
:100D5000CF910895863E910561F1873E910571F12D
:100D6000843E910509F0AECF8091D80281FFEECF8D
:100D70008091D702C7EED0E084FD0DC0E7CF80910F
:100D8000D70280FD33C09091D80290FFDFCFC3EE31
:100D9000D0E084FFDBCFD0E0C0E0D8CF8091D70295
:100DA00082FDFFC09091D80290FDFEC084FFCECF9F
:100DB000F2CF8091D70283FDDDCFC8CF8091D702DB
:100DC00083FDF5C09091D80291FFF0CFC4EED0E042
:100DD000BDCF8091D70285FFB9CFA6CF8091D70232
:100DE00085FDE8C08091D80283FFB0CFC9E3D0E091
:100DF000ADCF8091D70286FFA9CFCAE2D0E0A6CFBF
:100E00008091D70286FFA2CFC1E3D0E09FCFC13C43
:100E1000D10508F6C85AD0E0CC0FDD1FCA58DE4F06
:100E20000990D881C02DD46491CFC11540E2D40778
:100E300008F0AAC0C11581E0D80708F087CFC83EE6
:100E4000D10508F483CFA7CFC03622E5D20718F525
:100E5000C03432E5D30708F053C0C03242E5D407AE
:100E600008F047C0C11582E5D80708F47FC02C2FD1
:100E70002695269540E2249F900111248C2F8370A3
:100E8000C1E0D0E002C0CC0FDD1F8A95E2F7C22B93
:100E9000D32BDD685BCFC03A22E5D20760F4C038BF
:100EA00032E5D30708F441C0CF71D0E0DC2FCC2766
:100EB000C46FD06A4BCFC03C42E5D40708F44AC0A7
:100EC000C03E82E5D80708F066CFDC2FCC27CC27C0
:100ED000DF71C06FD06A3ACFC55AD0E0CD58DE4F2F
:100EE000C881D0E0D06432CFD06530CFDF70D06A17
:100EF0002DCFCF71D0E0DC2FCC27C16FD06A26CFA9
:100F00002C2F26952695277080E2289F900111248A
:100F10008C2F8370C1E0D0E002C0CC0FDD1F8A951A
:100F2000E2F7C22BD32BDC6811CF2C2F2695269508
:100F3000277040E2249F900111248C2F8370C1E020
:100F4000D0E002C0CC0FDD1F8A95E2F7C22BD32B75
:100F5000DA68FCCE8C2F8F710E940B06C82FD0E070
:100F6000DC2FCC27CC27DF71D062F0CE8C2F8F7195
:100F70000E940B0635E0D695C7953A95E1F7CF70FC
:100F80009C2FEC01D069E2CE8D2F8F710E940B0651
:100F900090E0982F882788279F719C012C2BE901CE
:100FA000E3CFC2EED0E0D2CEC0EED0E0CFCEC6EEE0
:100FB000D0E0CCCEC5E3D0E0C9CE80914102811112
:100FC0001092410208958095909140029823909349
:100FD00040020895E8EDF1E09191891303C0DF012B
:100FE00011971C9291E0EE3DF907B1F70895A8ED35
:100FF000B1E0EFEF90E02D91821751F0EF3F19F43F
:10100000211101C0E92F9F5F9630A9F7EF3F09F446
:1010100008950E2E000CFF0BEA52FE4F82830895B6
:101020008091350290910402981301C008958F5F5A
:101030008770FACF292F9A3078F5873068F590E0DD
:1010400037E0239F800D911D1124682F677023E0E6
:10105000969587952A95E1F7FC01EE0FFF1FE80FA3
:10106000F91FED51FE4F50E040E080E0219130E06B
:10107000062E02C0369527950A94E2F72170332791
:10108000042E01C0220F0A94EAF7822B4F5F5F4FB4
:101090004330510559F7089580E00895292F9A307B
:1010A00098F5873088F590E037E0239F800D911DFB
:1010B0001124282F277041E001C0440F2A95EAF738
:1010C00023E0969587952A95E1F7FC01EE0FFF1F27
:1010D000E80FF91FED51FE4F30E020E070E0519134
:1010E000DF011197CB01022E02C0969587950A94D5
:1010F000E2F7817081958527842385278C932F5F64
:101100003F4F2330310559F70895982F9670963048
:1011100021F48860809319040895877FFBCF809124
:101120001904982F9670963021F488600E948508E3
:101130000895877FFBCF21E030E001C0220F8A9520
:10114000EAF720958091190482230E94850808956A
:10115000909136028095892380933602282F27703C
:1011600091F4282F082E000C330B9217130659F018
:101170009091D80292FF07C08595859585950E942C
:101180009B0810923602089521E030E001C0220F42
:101190008A95EAF780911904822B0E9485080895A8
:1011A000809342020895CF93DF93C091DF01C80F6F
:1011B00041F41092DF0160E070E0CB01DF91CF914C
:1011C00008958C2F64E10E947F2BD92F682F880F00
:1011D000770B880B990B0E944E2CD093DF01CD5ECC
:1011E000C73260F31092E001E9CFCF93DF93C09153
:1011F000E001C80F41F41092E00160E070E0CB0123
:10120000DF91CF9108958C2F6AE00E947F2BD92F18
:10121000682F880F770B880B990B0E944E2CD09368
:10122000E001C75FC33160F31092DF01E9CF0F9394
:101230001F93CF93DF93C82FD62F082F10E06003A2
:10124000B0011124072E000C880B990B0E944E2C24
:101250002D2F0D2E000C330B37FF03C03195219538
:1012600031092330310584F021E02C0F2330D0F4F4
:101270001D167CF433E0C39FB0011124072E000C2F
:10128000880B990B0E944E2CDF91CF911F910F91EB
:101290000895C801880F991F880F991FB801681B0E
:1012A000790BECCFCC5FC93078F71D1634F4B80158
:1012B000660F771F660F771FE1CF2CEF2003B00179
:1012C000219F700D1124DACFAEE1B0E0EAE6F9E03B
:1012D0000C94502B4B8B5C8B8F8B988FE98EFA8EF6
:1012E0000B8F1C8FD22E2D8FF32E3E8F862FB72E75
:1012F0009091E101992309F451C00E94F5080E94E0
:10130000162CC62E8B2D81950E94D3080E94162C78
:10131000E62EB12CA12C8091DE01882309F451C066
:10132000802F0E94F5080E94162CF62E812F8195A1
:101330000E94D3080E94162CD62E60E000E0AD8AF1
:10134000BE8AEF8AC88E86E0FE017396DE0117968C
:1013500001900D928A95E1F74C895A8D802F002ECD
:10136000000C990B8A0D911DA7FC9A9580382FEFE0
:101370009207C4F180389105BCF5062E000C770B5E
:101380006B0D711DB7FC7A9560389FEF790774F18A
:10139000962F603871055CF19FE729C0EF88C88CF3
:1013A000609164010E9417090E94162CA62EA19438
:1013B000609163018B2D0E9417090E94162CB62E96
:1013C000AACF60916201802F0E9417090E94162CFB
:1013D000062F019560916101812F0E9417090E94DB
:1013E000162CADCF80E8C9CF8FE7C7CF90E86F2D1F
:1013F0000F2C000C770B6C0D711DC7FC7A956038B3
:101400002FEF7207B4F160387105ACF52D2D0D2C5E
:10141000000C330B2E0D311DE7FC3A9520387FEF81
:1014200037075CF12038310554F5452B488789870B
:101430009A872B876C8786E0FE013796DE0111962E
:1014400001900D928A95E1F786E0FE013196DE016A
:101450001D9601900D928A95E1F72D853E854F8569
:10146000588969897A8980E090E06E96EAE00C9468
:101470006C2B60E8CBCF6FE7C9CF20E8D6CF2FE742
:10148000D4CF0F931F93CF93DF938B01EA019091F9
:101490000C04943061F58093E9008FEF9091E8009F
:1014A000815095FD06C095ED9A95F1F700008111E8
:1014B000F5CF8091E80085FF1AC00E946803811172
:1014C00011C08091E80085FD06C08091E8008E770C
:1014D0008093E800F2CFF80181918F018093F100B1
:1014E000219779F78091E8008E778093E800DF916B
:1014F000CF911F910F91089543E050E0BC0184E02B
:101500000E94410A089546E050E0BC0184E00E9438
:10151000410A0895CF93DF93EC0148E050E0BC010D
:1015200081E00E94410A88E0FE01A2E0B4E001905F
:101530000D928A95E1F7DF91CF910895CF92DF92D6
:10154000EF920F931F93CF93DF93CDB7DEB7C25DBA
:10155000D1090FB6F894DEBF0FBECDBF60916E010A
:101560008091EF0380FF4CC0E9E3F3E09E012F5F21
:101570003F4F8E010D521F4FC901A4914A2F50E0D9
:10158000DA01AA0FBB1FA40FB51FA35EBC4FCD90FD
:10159000DD90EC90D901CD92DD92ED929D013196D6
:1015A000A017B10751F720916D0143E0249F800DF2
:1015B000911D1124539A2BB1277F3BB138605FB73F
:1015C000F894FC01649FE00DF11D1124BF01861702
:1015D000970749F55FBFEFE5F4E03197F1F700C0F9
:1015E0000000CE52DF4F0FB6F894DEBF0FBECDBF66
:1015F000DF91CF911F910F91EF90DF90CF900895E1
:1016000080916F019091700123E0829FF00111247D
:10161000E35EFC4F891708F0A7CF11821082128277
:101620008F5F3396F7CFDC014D91CD01E8E03BB9F8
:10163000000000C047FF2BB9440F000000C000C0ED
:1016400000C02BB900C0EA9591F7C1CFEFEEF3E0EF
:1016500080818E7F8083EAE1F3E0828181608283F2
:101660000E949E0A0895B0E0A0E0E9E3FBE00C943C
:10167000502B7C015B016A018091C60201E010E001
:101680008A3010F40AE010E0C1E0D0E0B501C701F3
:10169000F6010995811104C021960C171D072CF441
:1016A000CDB7DEB7EAE00C946C2BCC9F9001CD9FB8
:1016B000300D300D112490E080E045E34A95F1F7BC
:1016C0000000019682179307C1F7E0CF8091510285
:1016D000811119C088EC90E02091E30027FD10C033
:1016E000EFE3FCE93197F1F700C000000197A1F7A3
:1016F00082E0809351020E94490310920C0403C0BF
:1017000081E08093510281E090915102913011F07B
:1017100080E0089508950E94660B882359F0E091B7
:10172000F603F091F703309729F00190F081E02D56
:101730000995089580E0089598E020E83AE03A9508
:10174000F1F700C04698382F322351F0599A3AE009
:101750003A95F1F700C0469A2695915079F7089589
:101760005998F5CF89982AE02A95F1F700C00E9490
:101770009C0B85E38A95F1F70000599A98E080E088
:101780002AE02A95F1F700C046982AE02A95F1F759
:1017900000C0469A29B122FB222720F9880F822B0C
:1017A000915071F79AE09A95F1F700C0899A0895DF
:1017B000CF9380E00E94B20B813129F090E0C0E02D
:1017C0008C2FCF91089580EA8A95F1F782E00E94EC
:1017D000B20B87FFF3CF80EA8A95F1F783E00E948E
:1017E000B20BC82F80EA8A95F1F784E00E94B20B11
:1017F000982FE6CFACE0B0E0E0E0FCE00C94562B94
:101800004F8358878B879C87162F072F0E94D80BF2
:10181000811104C0911102C0902F812F89879A876E
:1018200086E0FE013796DE01119601900D928A95B1
:10183000E1F729813A814B815C816D817E8180E075
:1018400090E02C96E4E00C94722BCF93DF93C6E5E6
:10185000D2E060E0CE010E94E22B2196C11584E027
:10186000D807B9F7DF91CF9108951F93CF93DF93F6
:10187000122F8430E0F46A30D0F44730C0F4C42F23
:10188000D0E0CC0FDD1F9EE0699FC00DD11D11245B
:101890009CE8899FC00DD11D1124632FCE0186962F
:1018A0000E94E22B612FCE0187960E94E22BDF91EE
:1018B000CF911F910895AF92BF92CF92DF92EF9296
:1018C000FF921F93CF93DF938FE7C82E83E0D82E2C
:1018D000D0E07601C0E014C0F50125913491412F8C
:1018E0006C2F8D2F0E94350C82E0A80EB11C1F5F5B
:1018F000173091F78EE0E80EF11CCF5FCA3019F077
:10190000570110E0E9CFDF5F8CE8C80ED11CD4305E
:1019100001F7DF91CF911F91FF90EF90DF90CF9073
:10192000BF90AF900895CF93C82F6FEF811163E2FE
:1019300082E290E00E94E22B6FEFC11161E083E24E
:1019400090E00E94E22B6FEFC11162E284E290E02E
:101950000E94E22BCF91089580E00E94930C60E0FA
:1019600085E290E00E94E22B0E945B0C0E94250C15
:1019700081E00E94930C08950F931F93CF93DF9300
:10198000843030F56A3020F5473010F5C42FD0E0B0
:10199000CC0FDD1F2EE0629FC00DD11D11243CE84D
:1019A000839FC00DD11D1124CE0186960E94CE2B9F
:1019B000082F10E0102F0027CE0187960E94CE2B13
:1019C0009801282BC901DF91CF911F910F910895A4
:1019D00090E080E0F8CF462F7A3040F4673030F462
:1019E000843020F4672F0E94BC0C089590E080E0C2
:1019F0000895CF92DF92FF920F931F93CF93DF93BF
:101A00006C010091190480914202082BC7E0D0E0DC
:101A100010E0FC2EC8010C2E02C0959587950A9403
:101A2000E2F780FD0CC02197A0F7F12C8F2DDF91FC
:101A3000CF911F910F91FF90DF90CF900895B60145
:101A40008C2F0E94EB0C0E944E06019761F3EECFA3
:101A5000CF93DF93EC010E94F90CBE010E94EB0CC6
:101A60000E944E06DF91CF910895FC0183819481FD
:101A7000892B29F08081918189238F3F51F480E067
:101A80000895843FE1F717C0883EA8F0813FB9F779
:101A900012C0808191810E94280D92959F7096308E
:101AA00099F358F4925F9F70923048F7803F19F095
:101AB00040F7883E20F781E008959A5FF4CF82E2F4
:101AC00090E00E94CE2B833289F483E290E00E9462
:101AD000CE2B813059F484E290E00E94CE2B91E02D
:101AE000823209F090E0892F8170089580E0FCCF68
:101AF000CF92DF92EF92FF926B017C010E94520520
:101B0000B701A60188E090E00E94F42BFF90EF90CF
:101B1000DF90CF900895B0E0A0E0E1E9FDE00C9403
:101B20004E2B182FC62FD42F822E0091EF0300FFCB
:101B30004CC08091F003811308C08091F10386139B
:101B400004C08091F203841729F080911C03826005
:101B500080931C03E02FE695F0E0EE53FE4F80816A
:101B600080931A03802F8E7F8230E9F4ED2FD739CE
:101B700008F0E6E9F0E0E75CFD4FC1112BC02491CD
:101B8000F22FE22F00FF0FC080916F019091700142
:101B900033E0839FD0011124A35EBC4F891708F462
:101BA0008EC00E949E0A1093F003C093F103D0935D
:101BB000F203882051F06091EF037091F00380915F
:101BC000F1039091F2030E94780DCDB7DEB7ECE0FF
:101BD0000C946A2BEC2EF12CE4919E2ECE2ED12C5F
:101BE00026E0129FC00111242FEF30E0B9010E94BE
:101BF0008D2B812F90E0880F991FF5E5F69FA001AE
:101C0000F79F500D1124841B950BB82EBB0CB80EFA
:101C1000A9014E195F094C9DC0014D9D900D5C9D21
:101C2000900D1124F92FCB9DA0011124452F55278C
:101C3000D901A41BB50BAC9DA001AD9D500DBC9D61
:101C4000500D1124D901AB19B1095D01AE9CD00131
:101C5000AF9CB00DBE9CB00D1124AB2FBB272A1B2F
:101C60003B0B2C9DD0012D9DB00D3C9DB00D112442
:101C70002B2F62307105A1F050F46115710509F444
:101C800081CF6130710581F0292FF52F7BCF643032
:101C9000710569F080F06630710509F473CFF4CFF7
:101CA0002E2FE92FFB2F6ECF2E2FE52F6BCF292F55
:101CB000FE2FEB2F67CFE92FF92D252F63CF11963C
:101CC000EC9311972C931296FC9312978F5F1396B7
:101CD00065CFEFEEF3E0438121E1421B08F440E0E1
:101CE00021E0628181810E948B0D0895EFEEF3E087
:101CF000438121E1420F08F44FEF21E062818181AD
:101D00000E948B0D0895EFEEF3E0628121E1621BEA
:101D100008F460E021E0438181810E948B0D0895E9
:101D2000EFEEF3E0628121E1620F08F46FEF21E052
:101D3000438181810E948B0D0895EFEEF3E0818154
:101D400021E04381628188500E948B0D0895EFEE5F
:101D5000F3E0818121E043816281885F0E948B0DE5
:101D600008958091F303882319F081508093F30341
:101D70006091EF037091F0038091F1039091F20371
:101D80000E94780D08958091F303833018F48F5FDB
:101D90008093F3036091EF037091F0038091F1035E
:101DA0009091F2030E94780D08958091EF0380FFD7
:101DB0001EC0817082608093EF0380911C0381605C
:101DC00080931C03662351F06091EF037091F00340
:101DD0008091F1039091F2030E94780D20E04091F0
:101DE000F2036091F1038091F0030E948B0D08953E
:101DF0008091EF038695815009F481E061E00E94B3
:101E0000D50E089561E081E00E94D50E0895EFEEB1
:101E1000F3E083E0808311828FEF828386E98383FE
:101E20001482AAE1B3E012968C9112978360129605
:101E30008C9360817181828193810E94780D0895D5
:101E400046E050E06DEF72E08FE093E00E94B22C2C
:101E5000892B21F08FE093E00E94280590911003D8
:101E600086E0EFE0F3E0DF01282F1D922A95E9F7E5
:101E700090931003ADEFB2E001900D928A95E1F7D7
:101E80000895A0E3B0E0E7E4FFE00C94542B0E9437
:101E9000660B882309F4DCC04091160350911703A8
:101EA00060911803709119032FB7F8948091FB0388
:101EB0009091FC03A091FD03B091FE032FBF481742
:101EC00059076A077B0709F4C3C00E94C6046093E0
:101ED000160370931703809318039093190350917E
:101EE00015035093100340910F03609111037091FB
:101EF000120380911303909114030E94FA0B209314
:101F00000F03309310034093110350931203609317
:101F1000130370931403309315030E94660B8823F8
:101F200009F49AC086E0EFE0F3E0DE011796019035
:101F30000D928A95E1F786E0FE013796DE019596CF
:101F400001900D928A95E1F786E0FE01B596DE01DB
:101F5000119601900D928A95E1F786E0FE01319687
:101F6000AFE0B3E001900D928A95E1F786E0E9E0F9
:101F7000F3E0DE01179601900D928A95E1F786E075
:101F8000FE013796DE019B9601900D928A95E1F74E
:101F900086E0FE01BB96DE01119601900D928A95B6
:101FA000E1F786E0FE013196A9E0B3E001900D92E1
:101FB0008A95E1F70E94660B882309F487C086E0C2
:101FC000EFE0F3E0DE01539601900D928A95E1F780
:101FD00086E0E9E0F3E0DE01179601900D928A9524
:101FE000E1F7EF80F88409851A852B853C854B89BC
:101FF0005C896D897E898F89988D0E9464092D87FF
:102000003E874F87588B698B7A8B86E0FE013D9621
:10201000DE01119601900D928A95E1F786E0FE01AE
:102020003196AFE0B3E001900D928A95E1F786E03A
:10203000E3E0F3E0DE01119601900D928A95E1F75D
:10204000809110039A81892B809310030E94200FA6
:10205000E096E6E00C94702B86E0EFE0F3E0DE0122
:10206000179601900D928A95E1F786E0FE0137966A
:10207000DE01599601900D928A95E1F786E0FE0106
:102080007996DE01119601900D928A95E1F786E02E
:10209000FE013196AFE0B3E001900D928A95E1F731
:1020A00086E0E9E0F3E0DE01179601900D928A9553
:1020B000E1F786E0FE013796DE015F9601900D9212
:1020C0008A95E1F786E0FE017F9665CF86E0E9E03C
:1020D000F3E0DE01539601900D928A95E1F786E0D8
:1020E000EFE0F3E0DE011D9601900D928A95E1F795
:1020F000ED84FE840F85188929893A894B895C898A
:102100006D897E898F89988D0E9464092F83388715
:1021100049875A876B877C8786E0FE01379678CFA0
:10212000662309F472C08D3C41F40E94A605819596
:10213000809306030E94680508958E3C19F40E945E
:10214000A605F6CF8F3C31F40E94A60581958093B9
:102150000503F0CF803D19F40E94A605F8CF893D14
:1021600029F40E94840580930703E4CF8A3D21F47B
:102170000E9484058195F7CF8B3D31F40E94840540
:10218000819580930803D6CF8C3D19F40E94840575
:10219000F8CF9FE2980F983020F5282F215D330B60
:1021A000A90121E030E001C0220F4A95EAF79091A1
:1021B0000403922B90930403815D21E030E0A90198
:1021C00002C0440F551F8A95E2F7CA0120911003FF
:1021D000662309F493C0822B809310030E94200F82
:1021E00008958D3D31F48091F80281608093F8026A
:1021F000A1CF8E3D21F48091F8028260F7CF8F3D10
:1022000019F58091F8028460F1CF909105038D3C1F
:1022100059F42091060327FF0DC010920603911177
:102220000BC01092F60208C08E3CB1F42091060358
:1022300012169CF39923B1F09091070320910803A3
:10224000922B11F41092F702482F415D550B483044
:10225000510508F4B1CF6ECF8F3C39F497FFEACF28
:102260001092050390910603DACF803D19F41916F8
:10227000BCF3E0CF20910703893D29F41216D4F670
:1022800010920703D7CF8A3D19F427FFD3CFF8CF99
:10229000209108038B3D29F427FFCCCF109208032F
:1022A000C9CF8C3D19F41216CCF3C4CF2FE2280FFE
:1022B000283088F4282F215D330BA90121E030E07C
:1022C00001C0220F4A95EAF7209530910403232399
:1022D00020930403AFCF2091F8022E7F8D3D59F05B
:1022E0002091F8022D7F8E3D31F08F3D09F0A2CF75
:1022F0002091F8022B7F2093F8029CCF80958223B7
:102300006BCF8091400290913F02892B8093D60140
:1023100090914102992391F0892B8093D60120E07E
:1023200088ED91E0FC013191CF0131112F5FF1E097
:102330008E3D9F07B9F721110E94DD0748E050E06C
:1023400067E372E086ED91E00E94B22C892BA9F040
:1023500088E0E6EDF1E0A7E3B2E001900D928A9506
:10236000E1F7E091F603F091F703309731F0028046
:10237000F381E02D86ED91E009950895CF931092B9
:102380004002C6E0E8EDF1E0DF018C2F1D928A9556
:10239000E9F790E080E00E94030590E080E00E9471
:1023A000DE0410923F020E948111E3E0F3E0DF01BE
:1023B0001D92CA95E9F71092F6021092F702109258
:1023C000F8020E946805CF910895AAE2B0E0EBEE12
:1023D000F1E10C94572B8EE094E02091F100DC01A8
:1023E0002D93CD01B4E086319B07B9F780910F049E
:1023F000833009F472C0B8F4813009F449C08230E6
:1024000009F4B3C08091E80083FF8BC280910E0471
:1024100090910F049A3008F084C2E92FF0E0E6535F
:10242000F34D0C94B52B8A3009F48EC08B3009F42F
:1024300071C0893039F780910E04813219F780918B
:10244000120490911304009711F00297D9F680912D
:10245000E800877F8093E8008091E80082FF38C021
:102460009091F3008091F200029731F48091F10095
:10247000813011F0863021F48091F10080930104C5
:102480008091E8008B778093E8000E949903BACF8F
:1024900080910E04813A09F0B5CF8091E800877FE2
:1024A0008093E8008091120490911304892B61F4C9
:1024B00068E082E094E070E00E9445048091E800CA
:1024C0008B778093E8009ECF60E090E080E0F3CFD0
:1024D00080910C048111C0CF95CF80910E04813A78
:1024E00009F090CF8091120490911304892B09F088
:1024F00089CF8091E800877F8093E8008091E80091
:1025000080FFFCCF809172018093F1008091E80000
:102510008E77B9CF80910E04813209F073CF80910C
:10252000120490911304892B09F06CCF8091E8007C
:10253000877F8093E8000E94990380911004809324
:1025400072010E94BE115ECF80910E04813209F0AB
:1025500059CF8091E800877F8093E8000E9499031B
:1025600080911104809300044DCF80910E04813A34
:1025700009F048CF8091E800877F8093E800809140
:10258000E80080FFFCCF80910004BECF803899F036
:10259000823809F0C6C1809112048F70873008F02C
:1025A000C0C18093E9008091EB0085FB882780F90A
:1025B0001092E90006C080910A0490910B049111D9
:1025C00082609091E800977F9093E8008093F100FB
:1025D0001092F1008091E8008E779FC1882309F462
:1025E0008DC1823009F09DC180911004811190C18C
:1025F000809112048F702FEF280F263008F091C1C0
:102600008093E9002091EB0020FF82C1933031F4E8
:102610008091EB0080628093EB007AC19091EB0097
:1026200090619093EB0021E030E001C0220F8A9589
:10263000EAF72093EA001092EA008091EB008860AC
:10264000EACF81116EC1109110041F778091E300D1
:102650008078812B8093E3008091E800877F8093CE
:10266000E8000E9499038091E80080FFFCCF8091F0
:10267000E30080688093E30082E0111183E080939F
:102680000C044FC18058823008F04BC120911004D7
:10269000309111042C3DE3E03E07A1F583E08A83ED
:1026A0008AE289834FB7F894DE01139620E03EE07A
:1026B00051E2E32FF0E050935700E49120FF03C074
:1026C000E295EF703F5FEF708E2F90E0EA30C0F040
:1026D000C7968D939D932F5F243159F74FBF8091FB
:1026E000E800877F8093E8006AE270E0CE010196FF
:1026F0000E9445048091E8008B778093E80011C127
:10270000C096E7CF8091120490911304432F552770
:102710004330510509F44AC078F54130510509F4B8
:102720007AC08BE590E0EFEAF5E04230510509F020
:10273000F8C02091E800277F2093E800209114043E
:10274000309115048217930708F49C0140E021158D
:10275000310509F065C0411163C08091E80082FD38
:10276000C9CF80910C04882329F2853019F2809119
:10277000E80083FFF2CFBECF4132510509F43CC0DF
:102780004232510509F0CDC08330910508F0C9C02F
:10279000FC01EE0FFF1FE953FE4F0190F081E02D89
:1027A0008C539E4FDC018C9190E01AC0332721306E
:1027B0003105D1F02115310561F02230310509F0E4
:1027C000B0C0ECE1F6E0E4918E2F90E0ECE1F6E0B1
:1027D00007C0E0E5F6E0E4918E2F90E0E0E5F6E05A
:1027E000009709F49EC0A5CFE6E3F6E0E4918E2FB2
:1027F00090E0E6E3F6E0F4CF8330910508F091C075
:10280000880F991FFC01E353FE4F0190F081E02DEA
:1028100089E090E08ECF82E190E0EAE0F6E089CFB7
:1028200080910C04882309F465CF853009F462CFC8
:102830008091E80083FD5ECF8091E80082FD8DCF1E
:102840008091E80080FF83CF9091F3008091F200A7
:102850002115310519F08830910550F041E00897B5
:1028600009F040E08091E8008E778093E8006FCF18
:1028700044914093F1003196215031090196E8CFFF
:10288000803809F04EC08091E800877F8093E8008F
:1028900080910D048093F1009DCE811142C0109172
:1028A00010041230F0F58091E800877F8093E800F3
:1028B00010930D040E949903112311F084E005C0C8
:1028C0008091E30087FDFACF81E080930C0442E021
:1028D00061EC81E00E94B80342E261EC84E00E9476
:1028E000B80342E261EC82E00E94B80342E260EC8D
:1028F00083E00E94B80380910C0413C080911004FF
:10290000813079F481E0933009F080E080930B040A
:102910001092E9008091E800877F8093E8000E9490
:1029200099038091E80083FF0AC08091E800877FC7
:102930008093E8008091EB0080628093EB00AA9680
:10294000E3E00C94732B0E94BE112FEF84E39CE014
:10295000215080409040E1F700C0000088E19AE0FB
:102960000FB6F894A895809360000FBE9093600016
:10297000FFCF882321F00E94E3070E948111089570
:10298000882339F090914002982B909340020E9446
:1029900081110895882309F456C0823879F40E9481
:1029A0008B0B81FF50C089E30E94F7070E948111C1
:1029B00089E30E94EA070E9481110895833859F43F
:1029C0000E948B0B80FF3FC083E50E94F7070E94A7
:1029D000811183E5EECF843859F40E948B0B82FF7E
:1029E00032C087E40E94F7070E94811187E4E1CF9B
:1029F0009CEF980F913AE8F290E2980F983050F4DB
:102A0000877091E001C0990F8A95EAF7892F0E949B
:102A1000E307D1CF9BE5980F933028F490E080E056
:102A20000E940305089598E5980F993128F490E0E5
:102A300080E00E94DE04089593E3980F933118F428
:102A400060E00E9490100895CF93C82F8823C9F0AA
:102A50008238C9F40E948B0B81FD13C089E30E9468
:102A6000F7070E9481112FEF87EE93E021508040FD
:102A70009040E1F700C0000089E30E94EA070E944D
:102A80008111CF9108958338A1F40E948B0B80FDB2
:102A9000F8CF83E50E94F7070E9481112FEF81EEA6
:102AA00094E0215080409040E1F700C0000083E5B1
:102AB000E4CF8438A1F40E948B0B82FDE2CF87E43F
:102AC0000E94F7070E9481112FEF81EE94E02150C0
:102AD00080409040E1F700C0000087E4CECF8CEF4B
:102AE0008C0F813A68F4E8EDF1E08191C817E9F1C3
:102AF00021E0EE3DF207C9F78C2F0E94F707BFCF08
:102B000080E28C0F883068F4C77021E030E001C0AB
:102B1000220FCA95EAF780914002822B80934002EF
:102B2000AECFEBE5EC0FE33040F4F0E0ED58FE4FB4
:102B3000808190E00E940305A4CFE8E5EC0FE93125
:102B400050F4F0E0EE0FFF1FEA58FE4F80819181B4
:102B50000E94DE0496CF83E38C0F833108F091CF7F
:102B600061E08C2F0E9490108CCF8C2F0E94EA077E
:102B70000E948111C1CF1F93CF93DF93182FD0E014
:102B8000C0E0893311F4C0E5D0E0812F0E94241504
:102B9000209739F4812F0E94CA14DF91CF911F91A1
:102BA00008958FE99FE00197F1F700C00000219799
:102BB000EFCF0F931F93CF93DF93C62FD42F022F06
:102BC000FC0182818823A9F0609318040E94D2043A
:102BD0009093170480931604C77081E001C0880F9A
:102BE000CA95EAF70E94C014DF91CF911F910F910F
:102BF000089580911804681332C080911604909152
:102C000017040E94B7048837910548F510E21D0F9C
:102C1000CD17B9F080E28C0F883040F4C77081E0A6
:102C200001C0880FCA95EAF70E94B914183048F419
:102C300081E09D2F977001C0880F9A95EAF70E9456
:102C4000C014802F0E94BB15183070F6D77081E039
:102C500001C0880FDA95EAF70E94B914C5CFC77092
:102C600081E001C0880FCA95EAF7F6CF1092DA0228
:102C70001092DB021092DC021092DD0283E190E000
:102C80000E94D62B6093DA027093DB028093DC0201
:102C90009093DD0280E0663018F081E08093DA02E4
:102CA000763080F081E08093DB024091DA0250912F
:102CB000DB026091DC027091DD0283E190E00E9412
:102CC000F42B02C08111F1CF089567EE7EEF90E002
:102CD00080E00E94002C60E082E090E00E94E22B05
:102CE00060E083E090E00E94E22B1092420260E0FC
:102CF00074E184E090E00E94002C60E086E090E0C7
:102D00000E94E22B6FEF87E090E00E94E22B40E010
:102D100050E0BA0188E090E00E94F42B60E08DE082
:102D200090E00E94E22B40E050E0BA0188E190E0A0
:102D30000E94F42B60E087E190E00E94E22B40E0EB
:102D400050E0BA018CE190E00E94F42B70E060E06A
:102D500080E290E00E94002C40E050E0BA0188E15F
:102D600090E00E94F42B80E00E94930C0E94AC0C37
:102D700040E050E0BA018FE090E00E94F42B0E9406
:102D8000361608959091D80292FB222720F9281731
:102D900079F080FB92F99093D8026091D7027091FC
:102DA000D80284E090E00E94002C82E00E94A808F3
:102DB000089590E080E00E94DC2B873E9E4F19F43E
:102DC0000E945F0D089580E00895A8E0B0E0EBEE6A
:102DD000F6E10C944A2B8C01DC0113968D919C91A9
:102DE0001497892B39F08C9111969C9189238F3FF0
:102DF00009F0BFC52896E0E10C94662B0E94F90CFF
:102E0000F82E682F89819A810E944E0869817A8103
:102E10008F2D0E94EB0C7C01F8018281882309F43C
:102E200085C59701225037472031310508F093C5F9
:102E30008FEF93E00E94CE2B811185C0EA94EA9433
:102E4000E6E5AE2EE2E0BE2EE11047C0FE0133966D
:102E500086E0DF011D928A95E9F77AE0472E750139
:102E6000BFEFEB1AFB0AC5010E94CE2B89831A82A1
:102E7000882309F468C0813009F078C06501E2E078
:102E8000CE0ED11CC7010E94CE2B8A83882309F461
:102E90005AC09FEF980F933070F5F3E0AF0EB11C5E
:102EA000C6010E94CE2B8B83882309F44CC01C8260
:102EB000DE0111967D01F7012081222381F221306C
:102EC00009F094C091818281913009F051C0F2E003
:102ED000EF0EF11C0E94BB1552C0A114F4E0BF0616
:102EE00091F1C5010E94CE2B811101C0EA942FEF10
:102EF000A21AB20AA9CF56018430D1F662E0E62EBA
:102F0000F12C56012FEFA21AB20AC6010E94CE2B55
:102F1000E1E0F0E0EC0FFD1FEE0DFF1D8083882344
:102F200091F08C3741F4E2E0F0E0EC0FFD1FEE0D84
:102F3000FF1D1082BDCF3FEFE31AF30A650187E062
:102F4000E816F104F1F680913602877009F452CF49
:102F5000D80112968C91882309F44CCF8091D80225
:102F600082FF48CF82E00E94A80844CF5701A0CF3B
:102F7000923049F422E0E20EF11C0E942415EFEF9A
:102F8000EE1AFE0A98CF933031F432E0E30EF11CD2
:102F90000E94CA14F4CF943021F08FEFE81AF80A97
:102FA000EECF92E0E90EF11C30E020E0B7016F5F58
:102FB0007F4FD70111964C918053990B8A30910520
:102FC00050F021503109D8F2EFE9FFE03197F1F7E5
:102FD00000C00000F6CF429EF001439EF00D112488
:102FE0009C012E0F3F1F842F7B01E0CFE22FF0E0EA
:102FF000E754FE4F5490822F86958695869590E0F3
:10300000FC01E755FE4F64902770712C022E02C020
:10301000759467940A94E2F731E063227724FC0107
:10302000E756FE4F8490912C022E02C0959487940F
:103030000A94E2F7A1E08A229924FC01E757FE4FA7
:10304000C490D12C02C0D594C7942A95E2F7B1E080
:10305000CB22DD246114710419F081EE0E94241545
:103060008114910419F086EE0E942415852D0E948A
:10307000BB158114910419F086EE0E94CA146114E4
:10308000710419F081EE0E94CA14C114D10409F42C
:1030900076CF8CE21FCF882309F455CF61E083E01F
:1030A00090E00E94E22B81E00E94D0084CCF882360
:1030B00011F081E05BC481E003C0811156C482E05D
:1030C0000E949B080E948F083ECF882321F083E056
:1030D0000E94C40838CF83E00E949B0834CF882325
:1030E00009F431CF8091DA0290E0019666E070E059
:1030F0000E948D2B8093DA024091DA025091DB021C
:103100006091DC027091DD028FE090E00E94F42B70
:10311000E091DA02F0E0EE0FFF1FEA54FE4F8081EB
:1031200080936401809363010ECF882309F40BCF51
:103130008091DB0290E0019666E070E00E948D2BAA
:103140008093DB024091DA025091DB026091DC0255
:103150007091DD028FE090E00E94F42BE091DB02A1
:10316000F0E0EE0FFF1FEA54FE4F80818093620172
:1031700080936101E8CE882331F08091E10191E0F4
:1031800089278093E1011092E0011092DF01DBCEEC
:103190008823C9F38091DE0191E089278093DE01C5
:1031A000F2CFF701E851FC47E730F10510F5EC529A
:1031B000F34D0C94B52B26E241EE61EEC8010E945E
:1031C000D915C1CE27E245EE65EEF8CF26E241EEF5
:1031D00060EEF4CF27E245EE64EEF0CF26E241EE5A
:1031E00062EEECCF27E245EE66EEE8CF28E241E062
:1031F000EBCF882309F4E5C310921804C701905758
:10320000839708F0C9C384E090E00E94DC2B909380
:10321000D8028093D702F701E150F047E232F1057E
:1032200020F4E552F34D0C94B52B8091D7028160C8
:103230008093D70295C08091D80288608093D8028D
:103240008FC08091D7028260F3CF8091D7028460D3
:10325000EFCF8091D7028860EBCF8091D802816058
:10326000EDCF8091D8028260E9CF8091D702806152
:10327000DFCF8091D7028062DBCF8091D70280645C
:10328000D7CF0E94BE118091D7028068D1CF8091A4
:10329000D7028C60CDCF8091D8028360CFCF809150
:1032A000D7028E7FC5CF8091D802877FC7CF80910C
:1032B000D7028D7FBDCF8091D7028B7FB9CF809110
:1032C000D702877FB5CF8091D8028E7FB7CF80910C
:1032D000D8028D7FB3CF8091D7028F7EA9CF809106
:1032E000D7028F7DA5CF8091D7028F7BA1CF0E947F
:1032F000BE118091D7028F779BCF8091D702837FB9
:1033000097CF8091D8028C7F99CF8091D70282FB92
:10331000992790F921E0922790FB82F990FB83F99D
:1033200087CF8091D802982F909591708E7F892BAE
:1033300090FB81F983CF9091D702892F8F7B96FFE5
:10334000806476CF0E94BE119091D702892F97FB9F
:1033500087F980586DCF61E08EE090E00E94E22B0B
:103360006091D7027091D80284E090E00E94002C16
:103370000E94BE11E8CD60E0EFCF9091D702892F77
:103380008F7E94FF806154CF9091D702892F8E7FDA
:1033900090FF81604DCF9091D802892F877F93FF56
:1033A00088604CCF85E308C38091E201811104C09D
:1033B00089E20E94EA0702C385E3FBCF8091EF0315
:1033C00080FF15C08E7F8093EF036091EF037091B3
:1033D000F0038091F1039091F2030E94780D8091A7
:1033E0001C03816080931C030E949E0AACCD816007
:1033F0008093EF0361E086950E94D50EA4CD48EF3F
:103400005EE062E07FE00E944C059DCD42E05FE01F
:1034100068EF7EE0F8CF4DE95EE067EA7EE0F3CF4B
:1034200047EA5EE06DE97EE0EECF43E85EE060E90A
:103430007EE0E9CF40E95EE063E87EE0E4CF49E684
:103440005EE066E77EE0DFCF46E75EE069E67EE0CD
:10345000DACF41EB5EE063EC7EE0D5CF43EC5EE09B
:1034600061EB7EE0D0CF61E081E0C6CF0E94BE116B
:10347000FFEF24E33CE0F15020403040E1F700C092
:1034800000000E94A6046FEF7FEF90E080E00E94B2
:10349000002C0E94A3148091D80282FB882780F917
:1034A00091E089270E94C216F8018281E080F180B4
:1034B000882309F446C0C7010E94F90CD82E682F52
:1034C000C7010E944E08B7018D2D0E94EB0C0E948F
:1034D0004E067C01882ED8011296DC901297159624
:1034E000BC90B2943FE0B322809136028770C1F065
:1034F000AD2CDD20B1F08F2D807F803421F080E273
:103500008E0D883068F08091D80282FF09C082E079
:103510000E94A808809136028770AA24A394811182
:10352000A12C9F2C92942FE09222BBE0B91508F4B5
:1035300077C0E92DF0E0E350F34D0C94B52B80E01B
:10354000B1CFC7010E941A08D82EBDCFEF2DEF7062
:10355000CE2E8F2D807F19F0C29490EFC922DD20EE
:10356000B9F0CC2069F080E28E0D883010F0811027
:1035700009C080914002C82AC09240020E94811175
:103580008E2D4CC080913F02C82AC0923F02F6CFD8
:103590008E2D0E94CA14CC2009F442C080E28E0D08
:1035A000883010F0811004C08C2D0E94E30706C003
:1035B000C09480913F02C822C0923F020E948111B4
:1035C0002FC0FF2DFF70CF2E8F2D807F803219F0FE
:1035D000C29480EFC822882089F021E0821609F485
:1035E0006CC0DD2009F476C0BB2009F46CC0F80182
:1035F000858180FFC5CF8F70858365C02091D802FB
:1036000022FD34C0DD2061F1CC2039F080914002F0
:10361000C82AC09240020E94811180E00E942415B5
:10362000A92DA850BB0B149710F40E948B0BAA2055
:1036300009F4E0CB8091360280FDDCCBF8011282E8
:103640008595859585950E94C408C8010E94E51658
:10365000809136028595859585950E949B08CACBF9
:1036600080E00E94CA14CC20D9F29ECFDD2099F0D0
:10367000909141028C2D892BB11003C00E94C0147F
:10368000CFCF31E0B312FACF22FFCACF891741F270
:1036900080934102C5CFB11006C00E94DD078C2D7A
:1036A0000E94B914BDCF81E0B81609F4B9CF8C2DB2
:1036B0000E94B9140E94DD07B3CFDD2031F095E000
:1036C0009B1508F4ADCF8C2DD9CFA4E0AB1508F431
:1036D000A7CFE5CFBB2019F3F9E38F1209C02FEF75
:1036E00037EE83E0215030408040E1F700C0000019
:1036F0008E2D0E94CA1494CF8F2D86958695837047
:1037000061F0813009F08CCFC7019370D11002C0F5
:1037100080E090E00E94DE0483CFC7019370D11057
:1037200002C080E090E00E9403057ACF6D2D8E2DBF
:103730000E94901075CF8F2D837091F5D11070CFAE
:103740004E2D429546954770440F440F8E2D8F7035
:10375000042E01C0880F0A94EAF72E2D2071E4FE92
:1037600007C02FE030E001C0220F4A95EAF720950C
:103770003F2D369536953370323069F050F44091D4
:103780004202313029F0822B84230E94D00848CF96
:10379000842B822BFACF282B809142028227F5CFEF
:1037A0008695DD2011F08F2D8170882309F438CFA4
:1037B0004E2D429546954770440F440F8E2D8F70C5
:1037C000042E01C0880F0A94EAF72E2D2071E4FE22
:1037D00007C02FE030E001C0220F4A95EAF720959C
:1037E0003F2D369536953370323069F050F4409164
:1037F0001904313029F0822B84230E94850810CFD0
:10380000842B822BFACF282B809119048227F5CFA5
:103810009F2D9F70F92EDD2029F0892F0E94C4086A
:103820008E2D2CCF8E2D0E94B9148F2D0E949B08B7
:10383000F7CE8E2DA2EF8A16B1F1A81570F0B0EF79
:103840008B16D1F0E1EF8E1691F0DD2009F45EC009
:10385000B11096CE8F2D8F712AC0F3EF8F1651F1D4
:1038600024EF8212F2CF8091D80282FD2FC08F2DDB
:103870008F71DD20D9F21BC0DD2081F034E03B15D3
:1038800008F4CECE2F2D2F7181E090E001C0880F7B
:103890002A95EAF7909119048927AFCF85E08B1517
:1038A00008F4BECEEFCF8F2D8F71D110BFCF0E9405
:1038B000C408B6CE80E0DD2009F49FCF9F2D9F7114
:1038C00081E001C0880F9A95EAF797CFDD2099F043
:1038D0009F2D9F71F92E892F0E94C4088091D802D4
:1038E00082FF07C0A8E0FA9EC00111248360809384
:1038F00036028F2DDCCF81E00E94A808B1E0BB1515
:1039000008F08ECE82E00E94A8088ACEBB2059F033
:10391000893309F0EDCEEFEFF7EE23E0E150F04010
:103920002040E1F7E3CE8F2D8F7180CFE114F7E7D0
:10393000FF0609F4C0CB21E0E21627E7F20609F4FE
:10394000BECBF701FF57E830F10508F02ACCE75F5E
:10395000F24D0C94B52BE11437E7F30609F4A9CB2B
:1039600091E0E91697E7F90661F782E00E94C40842
:10397000A9CB85E0F801DE01119601900D928A95A0
:10398000E1F7D80112962C9189819A81211136CACA
:103990000E941A08F82E3ACAB6E1EB16BCE7FB06FD
:1039A00021F5809140028A7A91E009F490E09093A9
:1039B000E2018111F7CC89E20E94F7070E94811190
:1039C000C2CAE6E1EE16ECE7FE0609F4EDCC809102
:1039D00040028272F701E052F847E531F10508F044
:1039E00063CDEF5EF24D0C94B52BF3E0EF16FCE7E0
:1039F000FF0609F448CD60F4E1143CE7F30609F44E
:103A000035CD81E0E8168CE7F80609F442CD4CCDBF
:103A10009BE5E9169CE7F90609F491CDACE5EA16B9
:103A2000ACE7FA0609F437CDBAE5EB16BCE7FB06BE
:103A300009F03ACD81E036CD1F93CF93DF9380918B
:103A40000302807F09F049C080910002882309F4B5
:103A500044C080913502D09104026091FE017091C2
:103A6000FF01A0910102B0910202C62FC72316E008
:103A7000D81799F190E0109711F0CF3F19F4019603
:103A80008770F6CF189F9001199F300D1124F9010E
:103A9000EB5FFD4F41814713F2CF40814613EFCFDB
:103AA00042814111ECCF438154814A1B5B0B483763
:103AB000510528F7809103028F7080618093030283
:103AC000F901E65FFD4F80818F70806180838EEF0A
:103AD00091E00E94E5160E941008DF91CF911F919E
:103AE0000895A1E1B0E0E7E7FDE10C94502B8C01D3
:103AF00085E0F801DE011D9601900D928A95E1F7AF
:103B0000F801E2808EEFA82E81E0B82E60910102CC
:103B1000709102026115710509F426C19091FE01B0
:103B20004091FF01892F84238F3F09F41DC120811B
:103B30003181C380D480F0900002F601E61BF70BC0
:103B4000FF2009F4DCC080910302582F507FE83732
:103B5000F10508F09FC051116BC0FE2C431314C037
:103B6000921312C0E11010C08F7080618093030225
:103B7000C5010E94E51680910302F80185838F2D0F
:103B80006196EAE00C946C2BC114D10429F0822FC9
:103B900083238F3F09F003C180E0F82FF170DF2EFF
:103BA00080FF3CC0809135024091040256E08413AE
:103BB00015C02D873E878D859E850E94280D292F53
:103BC00022952F702230F0F0243018F59F70F1F01C
:103BD000F8019581907FD1F4D12C1EC090E0589FC0
:103BE000F001599FF00D1124EB5FFD4F61813613F9
:103BF00006C06081261303C06281E6120FC00196E1
:103C00008770D5CF9F7011F0882331F3805E8830A4
:103C100018F3C8010E94E516FD2CB1CFEE2009F47F
:103C2000AECF80910302816080930302F12CA7CF75
:103C3000431306C0921304C0F801EE2009F479C0C2
:103C4000C8010E94350D882309F1EE20F9F080911A
:103C50000302803270F02091FE013091FF0138871D
:103C60002F831986DB86CA868C87CE0107960E9431
:103C7000E51686E0F801AEEFB1E001900D928A956D
:103C8000E1F70E941C1DFF24F39479CFC8010E9424
:103C9000E516F9CF51110AC08EEF91E00E94E516AA
:103CA00086E0F50111928A95E9F7C0CF43130FC062
:103CB00092130DC0E1100BC0F8018583C8010E946A
:103CC000E51686E0F50111928A95E9F758CFC8010B
:103CD0000E94350D8823D1F2EE20C1F280910302BB
:103CE000803238F22091FE013091FF013A8329831E
:103CF0001B82DD82CC828E83CE010196B8CFE8375D
:103D0000F105F8F6FE2CEE2009F243131FC09213C2
:103D10001DC08091030280FD10C0982F907F69F034
:103D2000F8018583903F31F0982F907F905F8F70DE
:103D3000892B8583C8010E94E51686E0F801AEEF65
:103D4000B1E001900D928A95E1F719CFC8010E9468
:103D5000350D81118ECF8091030281608093030223
:103D6000C8010E94E5160BCFEE2009F48FCFC801E1
:103D70000E94350DF82E882309F488CF86E0F801DB
:103D8000AEEFB1E001900D928A95E1F78091FE01CE
:103D90009091FF010E94280D0E941C1DF0CE81E031
:103DA0008E25FBCEA7E1B0E0E8EDFEE10C94572BA9
:103DB0004B8B5C8B6D8B7E8B8F8B611110923F02D6
:103DC0001A8A198A85E0FE017396DE011D9601901C
:103DD0000D928A95E1F786E0FE013D96DE01179689
:103DE00001900D928A95E1F7CE0107960E94711D10
:103DF000882359F016E080913502909104028913CE
:103E000043C06796E3E00C94732B86E0FE0137967F
:103E1000DE01119601900D928A95E1F78A859B85C6
:103E2000892B41F38F81988589238F3F19F3209146
:103E3000040230E0C901019687709927409135024C
:103E40004817190671F40E94BE11109204021092D4
:103E5000350286E0EEEFF1E0DF011D928A95E9F789
:103E6000C9CF96E0929FD001939FB00D1124AB5F14
:103E7000BD4FFE01319601900D929A95E1F7809326
:103E800004020E941008B6CF819FC00111248B5FED
:103E90009D4F0E94711D882309F4B3CF8091350294
:103EA00090E001968770992780933502A4CFA9E10D
:103EB000B0E0EDE5FFE10C944D2B8E010F5F1F4F3D
:103EC0008AE0D8011D928A95E9F78AEAC82E81E036
:103ED000D82EF12CE12CAA24A394B12C26EB822E0F
:103EE00021E0922EF60181916F018F3F09F442C0CB
:103EF000F894E82FE295EF70F0E021A18F70A50112
:103F000002C0440F551F8A95E2F7CA01922F982BE1
:103F100091A392A18095892382A3789400C0EFEAAF
:103F2000F1E0712C31E021912F3F09F46BC0A22FF9
:103F3000A295AF70B0E090968C9190E02F7002C087
:103F4000959587952A95E2F780FD5CC0832F782AA6
:103F5000330F8E169F0639F7F601319780818F3F18
:103F600011F00E94F40550EA5A95F1F7F801EE0DB0
:103F7000FF1D70828FEFE81AF80AA5E0EA16F10437
:103F800009F0B0CF4AE050E0B8018BEC92E00E941B
:103F9000B22C009741F02AE0F801ABECB2E00190BE
:103FA0000D922A95E1F70091D602892B69F181E003
:103FB000809345020E94D20490934402809343026E
:103FC00080914302909144020E94B704059700F14A
:103FD00010E004511D4F45E050E06BEC72E0C80169
:103FE0000E94B22CD12C892B51F085E0EBECF2E051
:103FF000D80101900D928A95E1F7DD24D3941092B7
:10400000450207C080E0A3CF809145028111D8CF3F
:10401000D12C0E94660BC82EE091D602882309F4A9
:104020007FC07E01BBE0EB0EF11C85E0D7011D9245
:104030008A95E9F70E2F10E004511D4F8091C602BA
:104040008A30D8F546ED52E2B701C8010E94330B21
:10405000882309F454C04DEE51E2B701C8010E9413
:10406000330B882309F44BC047E951E2B701C8017B
:104070000E94330B882309F442C04AEA52E2B70196
:10408000C8010E94330B8823D1F11092C60280919F
:10409000D50290E045E050E0B70184519D4F0E9469
:1040A000B22C21E020935002892BE1F4C12C8C2DFD
:1040B0008D296996EDE00C94692B809146029091D0
:1040C00047020E94B704843F914008F0BBCF809123
:1040D0005002882359F385E0F70111928A95E9F798
:1040E00010925002A091D502B0E0A451BD4F85E0DE
:1040F000FE013B9601900D928A95E1F7D8CF809111
:10410000C6028F3F31F08F5F8093C6028A3008F479
:10411000BECF0E94D2049093470280934602D7CF2D
:10412000F0E0E451FD4F85E0A3E5B2E001900D928F
:104130008A95E1F765E070E083E592E00E9436053C
:10414000809352028090580290905902A0905A0297
:10415000B0905B0280914C0290914D02A0914E0272
:10416000B0914F0288169906AA06BB06D1F080923C
:104170004C0290924D02A0924E02B0924F020E94C9
:10418000660B81110EC00E94C604861A970AA80AFF
:10419000B90A8092C7029092C802A092C902B09256
:1041A000CA0288E0ECE5F2E0DE011B9601900D9278
:1041B0008A95E1F780915C02869500915D02F0900E
:1041C0005E02E0905F02109163021092630211237D
:1041D000A9F010FF0BC09B8590FF5EC09091EF038C
:1041E00091609093EF0360E00E94D50E11FF06C02E
:1041F00020E04E2D6F2D802F0E948B0D40914802A4
:104200005091490260914A0270914B022FB7F89485
:104210008091FB039091FC03A091FD03B091FE03FC
:104220002FBF481759076A077B0709F440CF0E9440
:10423000C604609348027093490280934A029093A7
:104240004B0289E0E4E6F2E0DE011B9601900D925C
:104250008A95E1F7FE01749686E0DF011D928A954A
:10426000E9F74C895D896E897F89888D998D0E94D7
:10427000FA0B2C873D874E875F87688B798B66E0CA
:1042800070E0CE010C960E9436058B8789E0FE0116
:104290003B96A4E6B2E02ECF0E94260BA7CFB0E05B
:1042A000A0E0E5E5F1E20C94532B7901C82F880FCB
:1042B000DD0B41155105A9F0FE0193E0EE0FFF1F44
:1042C0009A95E1F7E050FF4F818192818E5A9D4F80
:1042D000208130E04217530708F49A01A9010E9497
:1042E000BF2CCE010E94CF2AD82E8823D1F00115F1
:1042F0001105B9F083E0CC0FDD1F8A95E1F7FE01CF
:10430000E050FF4F438150E00417150708F4A8015F
:10431000C050DF4F6C817D816E5A7D4FC7010E9476
:10432000BF2C8D2DCDB7DEB7E7E00C946F2BA8E046
:10433000B0E0EDE9F1E20C94562B85E0EFEEF3E00E
:10434000DE01119601900D928A95E1F780911A0392
:1043500090911B03A0911C038E839F83A8872885BF
:104360004091BE025091BF026091C0027091C102A3
:104370003FB7F8948091FB039091FC03A091FD035B
:10438000B091FE033FBF841B950BA60BB70B843681
:104390009105A105B10510F42223C1F010E000E061
:1043A00030E020E048E050E0BE016F5F7F4F83E0E7
:1043B0000E944F21882369F00E94C6046093BE02C8
:1043C0007093BF028093C0029093C10210921C03AD
:1043D00081E02896E4E00C94722BA4E0B0E0E3EFD7
:1043E000F1E20C94562B4091BA025091BB026091BD
:1043F000BC027091BD022FB7F8948091FB0390919D
:10440000FC03A091FD03B091FE032FBF841B950B0D
:10441000A60BB70B11E084369105A105B10538F163
:104420000E94660B882341F10E94C6046E5F7F4F95
:104430008F4F9F4F69837A838B839C8310E000E0CA
:1044400030E020E044E050E0BE016F5F7F4F82E04B
:104450000E944F21182F882351F00E94C6046093B8
:10446000BA027093BB028093BC029093BD02812F6D
:104470002496E4E00C94722B0E94C6040091C702BB
:104480001091C8022091C9023091CA02600F711FB9
:10449000821F931FCBCFA1E0B0E0E1E5F2E20C94E4
:1044A0004D2B762E4A015901680101E010E09E0172
:1044B0002F5F3F4F50E040E070E060E00E944F21EE
:1044C000182F882309F440C0F40140815181628192
:1044D00073812FB7F8948091FB039091FC03A09116
:1044E000FD03B091FE032FBF841B950BA60BB70BEA
:1044F00084369105A105B10538F4B701C6010E94C3
:1045000036059981891701F18701950150E040E056
:1045100070E060E0872D0E944F21B82EB701C601E0
:104520000E94360511E09981981310E01B2139F0A3
:104530000E94C604F4016083718382839383812F78
:104540002196EDE00C94692BA701B601C5010E94EC
:10455000BF2CF5CFACE0B0E0E0EBF2E20C94542BD2
:1045600086E0E82EF12C05E612E09E01295F3F4F20
:1045700042EC52E065E084E00E944B22882391F0F7
:1045800096E0FE013796DE01119601900D929A9504
:10459000E1F796E0FE013196A9E0B3E001900D92BB
:1045A0009A95E1F72C96E6E00C94702BA5E0B0E02C
:1045B000ECEDF2E20C94522B6B0185E0E82EF12C2D
:1045C00003E512E09E012F5F3F4F46EB52E061E0B2
:1045D00080E00E944B22882349F095E0FE0131964D
:1045E000A1EBB2E001900D929A95E1F795E0E1EB35
:1045F000F2E0D60101900D929A95E1F72596E8E058
:104600000C946E2B1F920F920FB60F9211242F93C2
:104610003F934F935F936F937F938F939F93AF934A
:10462000BF93CF93DF93EF93FF93D091E900DF70B7
:104630008091EC00C82FC17080FDC0E81092E900A5
:104640008091F000877F8093F00078940E94E511BC
:104650001092E9008091F00088608093F000CD2BEB
:10466000CF70C093E900FF91EF91DF91CF91BF919F
:10467000AF919F918F917F916F915F914F913F91FA
:104680002F910F900FBE0F901F9018951F920F92B1
:104690000FB60F9211242F933F934F935F936F9315
:1046A0007F938F939F93AF93BF93EF93FF938091EB
:1046B000E10082FF09C08091E20082FF05C0809185
:1046C000E1008B7F8093E1008091DA0080FF24C0BD
:1046D0008091D80080FF20C08091DA008E7F809387
:1046E000DA008091D90080FF9DC080E189BD82E120
:1046F00089BD09B400FEFDCF81E080930C04809158
:10470000FF03811109C00E9449030E94EA038091BE
:10471000E20084608093E2008091E10080FF17C096
:104720008091E20080FF13C08091E2008E7F809331
:10473000E2008091E20080618093E2008091D800E5
:1047400080628093D80019BC85E080930C0480912E
:10475000E10084FF2BC08091E20084FF27C080E14C
:1047600089BD82E189BD89B5982F917080FFFBCF0B
:104770008091D8008F7D8093D8008091E1008F7E5A
:104780008093E1008091E2008F7E8093E20080912F
:10479000E20081608093E20080910D04882309F497
:1047A00047C084E080930C0480910C048091E10068
:1047B00083FF27C08091E20083FF23C08091E10046
:1047C000877F8093E10082E080930C0410920D04B7
:1047D0008091E1008E7F8093E1008091E2008E7FE6
:1047E0008093E2008091E20080618093E20042E0E9
:1047F00060E080E00E94B8038091F00088608093C0
:10480000F000FF91EF91BF91AF919F918F917F91B8
:104810006F915F914F913F912F910F900FBE0F902D
:104820001F90189519BC10920C041092FF0374CFBE
:104830008091E30087FD93E090930C04B5CF7894CA
:104840001F921FB61F9211248F939F93AF93BF9314
:104850008091FB039091FC03A091FD03B091FE03B6
:104860000196A11DB11D8093FB039093FC03A093BF
:10487000FD03B093FE03BF91AF919F918F911F9065
:104880001FBE1F9018951F921FB61F9211248F9361
:104890009F93AF93BF938091FA03811113C08091CE
:1048A000FB039091FC03A091FD03B091FE034196A0
:1048B000A11DB11D8093FB039093FC03A093FD0306
:1048C000B093FE03BF91AF919F918F911F901FBE38
:1048D0001F901895CDB7DEB7AB970FB6F894DEBF33
:1048E0000FBECDBF85B7806885BF85B7806885BF9F
:1048F00084B7877F84BF0FB6F894A8958091600035
:10490000886180936000109260000FBE80E890E0A4
:104910000FB6F89480936100909361000FBE86EC0F
:1049200095E09093D5018093D4010E9449030E94A1
:10493000EA038091E20084608093E20078948091A1
:104940000C048823A1F01091E9001F709091EC00F5
:10495000892F817090FD80E8182B1092E9008091DA
:10496000E80083FD0E94E5111F701093E90082E0CA
:1049700084BD93E095BD9AEF97BD80936E00109231
:10498000C7021092C8021092C9021092CA020E9475
:104990005F0D811102C00E94AC0C0E94660B8093D7
:1049A000600180916001882309F471C010926D014B
:1049B00083E280936E010E94660B81110E94DE29C2
:1049C000809160018091600195E0811190E0909369
:1049D000D60285E0891B8093D5020AEA11E0AFEA8E
:1049E000EA2EA1E0FA2ED8018D918D018F3F11F0B2
:1049F0000E94F405E016F106B1F70FEA11E0F6EBBC
:104A0000EF2EF1E0FF2EF80181918F018F3F11F021
:104A10000E94F405E016F106B1F78AE0ECEEF2E050
:104A2000DF01282F1D922A95E9F7EBECF2E0DF0178
:104A30001D928A95E9F70E9436160E94D9168111B7
:104A400002C00E94651682E090E00E94CE2B809307
:104A5000E00284E090E00E94DC2B9093D8028093E7
:104A6000D7020E94571FEFE3FCE93197F1F700C02E
:104A700000000E94571F8091EC0280FF0CC06FEF76
:104A80007FEF90E080E00E94002C0E94A60483E269
:104A900080936D018ECF83E090E00E94CE2B0E9428
:104AA000D0088091D902811136C00E94D916811197
:104AB00004C00E9465160E94070F88E090E00E94E3
:104AC000D62B6093EF037093F0038093F1039093E0
:104AD000F20380911C03836080931C036E7F71F44A
:104AE0000E94070F88E090E00E94D62B6093EF03AE
:104AF0007093F0038093F1039093F2030E945205A8
:104B00008091EF0380FF04C060E086950E94D50E7F
:104B100081E08093D9020E94660B811102C00E943D
:104B2000E12926982E983E9A519A819A52985A983D
:104B3000469A599A899A5A9A8998FAE0FA95F1F719
:104B400000C08AEB0E949C0B25E32A95F1F7000038
:104B50008AE50E949C0B4AE04A95F1F700C0599AF9
:104B6000899A8FE79FEAA2E081509040A040E1F748
:104B700000C000000E94D80B83E190E00E94D62B79
:104B80006093DA027093DB028093DC029093DD0283
:104B9000E62FF0E0EE0FFF1FEA54FE4F8081809376
:104BA000640180936301E72FF0E0EE0FFF1FEA54EA
:104BB000FE4F8081809362018093610185E691E0E0
:104BC0009093F7038093F60378E1872E912C11E000
:104BD000E6E96E2E712C80910C0440E1F42E02E186
:104BE000853009F488C00E94571F21EEC22E22E0B2
:104BF000D22E3CEEE32E32E0F32ED701F601919156
:104C00008D9142E0EB3EF40709F47FC09817B9F3A9
:104C10000E94660B282E9CEEA92E92E0B92E00E091
:104C2000D5015D905D01F60181916F01851531F12E
:104C300085258BA7412C332433948BA58321B1F098
:104C40002220A1F04EA20FA391E0852D832109F42B
:104C500090E098A70E94D2048160782F9AA789A734
:104C60004EA15FA168A58AA50E94D21E4394330C71
:104C7000F7E04F12E2CFF601319750820F5F0A3012
:104C800079F60E94C60461C080910C04843021F141
:104C90000E94410F1092FA03B0E40FB6F894A89561
:104CA000809260000FBEB093600083B7817F846004
:104CB00083BF83B7816083BF7894889583B78E7FE5
:104CC00083BF0FB6F894A8958091600088618093A7
:104CD0006000109260000FBE80910B04882359F091
:104CE0000E94571FECEEF2E081918111E0C222E0B8
:104CF000E63FF207C9F780910C04853009F4C4CF70
:104D00000E94BE110E948B0B6ECF981381CF0E9420
:104D1000D2046C018091DE029091DF02C816D906A0
:104D2000A1F08FEF89A38AA31BA20E94D204816005
:104D3000782F9DA38CA349A15AA16BA18DA10E949C
:104D4000D21ED092DF02C092DE020E94660B86E085
:104D5000E3E0F3E0DE01119601900D928A95E1F710
:104D60001092050310920603109207031092080395
:104D70008B819C81892B09F44AC08091FB02909120
:104D8000FC020E94B7049C019091F602992309F459
:104D9000B2C225313105D8F19F3F19F09F5F909342
:104DA000F6020B81002359F00E94A6059FEF101612
:104DB0000CF491E0899F802D1124809305030C81D0
:104DC000002359F00E94A6059FEF10160CF491E005
:104DD000899F802D1124809306033091050333238E
:104DE000B1F020910603222391F045EB3403C0017A
:104DF0001124992309F4B0C09093050345EB2403D3
:104E000090011124332309F4AAC0309306038D8145
:104E10009E81892B09F44AC08091F9029091FA028F
:104E20000E94B7049C019091F702992309F45EC295
:104E300021353105D8F19F3F19F09F5F9093F7021C
:104E40000D81002359F00E9484059FEF10160CF489
:104E500091E0899F802D1124809307030E81002308
:104E600059F00E9484059FEF10160CF491E0899F81
:104E7000802D112480930803309107033323B1F070
:104E800020910803222391F045EB3403C001112443
:104E9000992309F467C09093070345EB240390011D
:104EA0001124332309F461C03093080346E050E035
:104EB000BE016F5F7F4F83E093E00E94B22C892B8D
:104EC00061F48091050390910603892B909107036B
:104ED000892B90910803892B11F00E94680586E0C8
:104EE000FE013196A3E0B3E001900D928A95E1F7BF
:104EF0000E94410F0E948B0B9091EB02891721F0C9
:104F00008093EB020E94C60480910C04843009F067
:104F100062CE83E08093E9008091E80082FF5BCE5F
:104F20008091E80090E085FF05C00E946803882317
:104F3000F9F091E08091E8008B778093E800992365
:104F400009F449CE8981EFEFE80FE331D0F5F0E0C5
:104F5000EA5DF24D0C94B52B109305034FCF1093DF
:104F6000060355CF1093070398CF109308039ECFE5
:104F700080E2A82EB12CCE0101966C018091E80050
:104F800085FD0AC08091E8008B778093E8000E943D
:104F90006803882399F3CDCF8091F100D6018D93DA
:104FA0006D01B1E0AB1AB10849F7C3CF1A828BE0AB
:104FB0008B831BC08A81823009F48FC128F4813031
:104FC00061F08FEF898311C08330C1F08430C9F75D
:104FD0001B821C821D821E8208C00E94C6040E9481
:104FE000BB2B6B837C838D839E8340E250E0BE01AC
:104FF0006F5F7F4F82E00E94410AEDCDFE01339644
:10500000D7018D917D018193B6EFEB16B2E0FB06DF
:10501000B9F7EBCF8A81823049F0853091F68091E3
:10502000EF0380FF0EC00E94260BDFCF6B817C81D7
:105030008D819E810E94BB2B85E290E00E94E22B35
:10504000D4CF81608093EF0360E086950E94D50EF7
:10505000CCCF4C816B818A810E94BC0C9827892718
:1050600098279E838D83C1CF2D813E8132272327B0
:1050700032274C816B818A810E94350CB6CF0E9409
:105080005B0CB3CF9A81923009F09BCF8830D9F175
:10509000893009F462C08B81823009F1A8F4813033
:1050A00009F0A3CF8C81E6E98E9FC00111246FEF38
:1050B00070E00E948D2B462F20E06091F1038091DB
:1050C000F0030E948B0D91CF8330C9F0843009F03A
:1050D0008CCF20E04091F2036D818C81F2CF8C81E6
:1050E000882309F4A0CF8091EF0381608093EF03C0
:1050F00060E086950E94D50E60E08C81A7CF8C8100
:105100008093F30372CF8B818230D9F070F48130B9
:1051100009F06BCF8091F203FFEF8F9FC001112444
:10512000B3010E948D2B6C8360CF833099F0843063
:1051300009F05BCF8091F0038C838091F1038D8324
:1051400054CF8091EF0380FF03C086958C834DCFB1
:1051500080E0FCCF8091F303F9CF6091EF03709171
:10516000F0038091F1039091F2030E94780D3DCFFE
:1051700080E18A833ACF1A838AEA1ACFEA80FB80D9
:10518000FE24EF24FE24CE0101965C01CC80DC01DC
:10519000AC0DB11D6D01C7018A5A9D4FAC14BD0401
:1051A00009F423CFBAEAEB16B1E0FB0658F40E94EB
:1051B000CE2BF5018483BFEFEB1AFB0AEFEFAE1A9B
:1051C000BE0AE9CFD50114961C92F5CFEA80FB8088
:1051D000FE24EF24FE24CE0101965C01CC80CE0C8F
:1051E000DF2CD11CC7018A5A9D4FEC14FD0409F431
:1051F000FCCEAAEAEA16A1E0FA0620F4F5016481E1
:105200000E94E22BFFEFAF1ABF0A2FEFE21AF20A59
:10521000E9CF0E94250CE9CE84E0ABCFEA80FB8089
:10522000FE24EF24FE24CE0101965C01CC80DC013B
:10523000AC0DB11D6D01C7018696CA14DB0409F4DB
:10524000D4CEB0E3EB16B2E0FB0658F40E94CE2BAE
:10525000F5018483BFEFEB1AFB0AEFEFAE1ABE0A2B
:10526000EACFD50114961C92F5CFEA80FB80FE248C
:10527000EF24FE24CE0101965C01CC80CE0CDF2C05
:10528000D11CC7018696CE14DF0409F4AECEA0E38C
:10529000EA16A2E0FA0620F4F50164810E94E22BEE
:1052A000FFEFAF1ABF0A2FEFE21AF20AEACFF9BCFA
:1052B00009BD09B400FEFDCF8091D8008F7D809399
:1052C000D8008091E00082608093E0008091E0004F
:1052D00081FDFCCF0E94BE110ECD85E290E00E94C0
:1052E000CE2B1B821C821D828E837FCE2B303105FC
:1052F00008F0A3CDDBCD2B30310508F04FCD87CDA5
:1053000084E1489B02C08150E1F7489BFECF08959D
:10531000589885E18A95F1F70000589A0895FC01A4
:105320003BE03A95F1F7000098E020E080E031E0C2
:105330004AE04A95F1F700C0880F489B02C081609F
:10534000232742E04A95F1F700004AE04A95F1F739
:1053500000C0915069F79AE09A95F1F700C099B1B1
:1053600032E03A95F1F700004AE04A95F1F700C0C3
:10537000917092272081920F90830895A1E0B0E070
:10538000E4ECF9E20C94542B19828C017C01E60EBA
:10539000F11C0E151F0541F481E09981911180E007
:1053A0002196E6E00C94702B0E948029CE01019694
:1053B0000E948F29F80181938F01EBCF509A589A60
:1053C00008955098589AE89AE9E6F0E080818C7F39
:1053D000808308956150770B91E001C0990F6A9521
:1053E000EAF720E031E0911109C02223A1F0589A98
:1053F00085E18A95F1F7000058980895492F4823D0
:1054000041F0589A232745E14A95F1F70000969517
:10541000EACF5898F8CF5898EBCFFF920F931F938D
:10542000CF93DF93EC018C01060F111DC017D1073C
:1054300029F4CDB7DEB7E5E00C94712BF9900E940A
:10544000882968E08F2D0E94EA29F0CF1F920F92E1
:105450000FB60F9211240F931F932F933F934F93E7
:105460005F936F937F938F939F93AF93BF93EF93CC
:10547000FF93CF93DF930F92CDB7DEB719820E94CF
:105480008029CE0101960E948F29082F0695069546
:105490000695282F22952570902F9570290F922F11
:1054A000937026952695920F982797708981982B4F
:1054B00009F05FC00D3008F05CC08AE08A95F1F712
:1054C00000C0589A509A82E08A95F1F700C0589827
:1054D00088E0089F80011124D801A050BF4F169684
:1054E000ED91FC9117973097A9F06091A801709108
:1054F000A90114962D913C911597260F371F1196EF
:105500008D919C911297680F791F13964C91139768
:105510008C910995F801E050FF4F6381662351F0AB
:105520002091A8013091A90184819581820F931F58
:105530000E940D2A0E9488298AE08A95F1F700C00E
:1055400058985098589A8AE08A95F1F700C0F80167
:10555000E050FF4F6081662351F02091A801309107
:10556000A90181819281820F931F0E94BE290E940E
:1055700080290F90DF91CF91FF91EF91BF91AF9173
:105580009F918F917F916F915F914F913F912F915B
:105590001F910F910F900FBE0F901F9018950F93B2
:1055A0001F93CF93DF93EC010D970CF04DC0F8944F
:1055B000509A589885E08A95F1F700009C2F9695AF
:1055C00095708C2F8570980F892F8370969596957E
:1055D00023E0CC0FDD1F2A95E1F7980F8E01092BF0
:1055E0000E94882900C068E0802F0E94EA298AE092
:1055F0008A95F1F700C05098589A489B1EC087E0E2
:1056000090E048991CC0FE01E050FF4F6381662383
:10561000F9F02091A8013091A90184819581820F30
:10562000931F0E94BE29811113C0509A589A7894F2
:10563000DF91CF911F910F91089500C0DECF0197A8
:1056400029F4509A589A789480E0F2CF00C0D9CFCC
:105650000E94802985E18A95F1F700005898509AB8
:105660008AE08A95F1F700C0C050DF4F6881662359
:1056700051F02091A8013091A90189819A81820F6E
:10568000931F0E940D2A0E948829789481E0D0CF30
:105690002F923F924F925F926F927F928F929F9242
:1056A000AF92BF92CF92DF92EF92FF920F931F9330
:1056B000CF93DF93CDB7DEB7CA1BDB0B0FB6F894E1
:1056C000DEBF0FBECDBF09942A88398848885F8421
:1056D0006E847D848C849B84AA84B984C884DF8092
:1056E000EE80FD800C811B81AA81B981CE0FD11D76
:1056F0000FB6F894DEBF0FBECDBFED01089587FB56
:10570000082E062687FD819567FD61950E94C22BB4
:105710000EF4919507FC81950895AA1BBB1B51E1DE
:1057200007C0AA1FBB1FA617B70710F0A61BB70B11
:10573000881F991F5A95A9F780959095BC01CD01B6
:10574000089597FB072E16F4009407D077FD09D033
:105750000E948D2B07FC05D03EF4909581959F4FBC
:105760000895709561957F4F0895EE0FFF1F059086
:10577000F491E02D099469279627692778278727D0
:1057800078270895991B79E004C0991F961708F0AF
:10579000961B881F7A95C9F780950895F999FECFD1
:1057A00092BD81BDF89A992780B50895A6E1B0E031
:1057B00044E050E00C94082CA8E1B0E042E050E056
:1057C0000C94082C262FF999FECF92BD81BDF89A32
:1057D000019700B4021639F01FBA20BD0FB6F89435
:1057E000FA9AF99A0FBE08950396272F0E94E32B89
:1057F0000E94E22B252F0E94E32B242F0C94E32BF5
:105800000196272F0E94E32B0C94E22BDC01CB01A5
:10581000FC01F999FECF06C0F2BDE1BDF89A3196C0
:1058200000B40D9241505040B8F708950E941D2CCD
:105830006894B1110C94AC2C08950E94912C88F0BE
:105840009F5798F0B92F9927B751B0F0E1F0660F44
:10585000771F881F991F1AF0BA95C9F714C0B13085
:1058600091F00E94AB2CB1E008950C94AB2C672F03
:10587000782F8827B85F39F0B93FCCF386957795B4
:105880006795B395D9F73EF490958095709561959D
:105890007F4F8F4F9F4F0895E89409C097FB3EF4C8
:1058A00090958095709561957F4F8F4F9F4F99236D
:1058B000A9F0F92F96E9BB279395F69587957795EB
:1058C0006795B795F111F8CFFAF4BB0F11F460FFAB
:1058D0001BC06F5F7F4F8F4F9F4F16C0882311F003
:1058E00096E911C0772321F09EE8872F762F05C017
:1058F000662371F096E8862F70E060E02AF09A95B2
:10590000660F771F881FDAF7880F9695879597F9A6
:10591000089557FD9058440F551F59F05F3F71F09F
:105920004795880F97FB991F61F09F3F79F0879506
:105930000895121613061406551FF2CF4695F1DF8F
:1059400008C0161617061806991FF1CF869571051F
:10595000610508940895E894BB2766277727CB0153
:1059600097F90895FB01DC0104C08D910190801925
:1059700021F441505040C8F7881B990B0895FB0152
:10598000DC0102C001900D9241505040D8F70895BB
:10599000F894FFCFC612EE129114EE129114211357
:1059A0004213911440144D14E618EA18DB18E2185B
:1059B000EE18F218F6184F19C4195719211925199C
:1059C0005B1929195F196B193519BD1939196F1927
:1059D0003D1973199B1941197719A21947197D1996
:1059E00085192D196319311967194B1981199119E5
:1059F000AB19BB191B195319CB19A61AA61AE11A10
:105A0000E11A7C1B961B101B101B9B1B081C191CEE
:105A1000191C4B1857185D1865186F189518BB1886
:105A2000C818DE19FF19061A0B1A101A151A1A1AB5
:105A30001F1A241A291A2E1A331AA317A317A317E9
:105A4000A317A317A317A317A317A317D627DA27FC
:105A50000A28292834283F28422842284228E127BA
:105A6000E127B828BB28BE28E62809290C290E29D9
:025A70003529D6
:105A7200000000010000000000000005010000001D
:105A82000406000000000000080A000000000000F8
:105A920000000001120000000000000613000000D8
:105AA2000219000000000000041B00000000EB05CA
:105AB200201F000000000000011C00000000C805BB
:105AC200000000203F000000000000000000000075
:105AD2000101010101A3048A0A830A7C0A0046002B
