:100000000C942A030C94472B0C9447030C9447033D
:100010000C9447030C9447030C9447030C94470338
:100020000C9447030C9447030C9432240C94EE2355
:100030000C942F250C9447030C9447030C9447030E
:100040000C9447030C9447030C9447030C94470308
:100050000C9447030C940B250C9447030C94470312
:100060000C9447030C9447030C9447030C944703E8
:100070000C9447030C9447030C9447030C944703D8
:100080000C9447030C9447030C9447030C944703C8
:100090000C9447030C9447030C9447030C944703B8
:1000A0000C9447030C9447030C9447030501090281
:1000B000A10185020901A1000509190129081500FE
:1000C0002501950875018102050109300931158165
:1000D000257F95027508810609381581257F9501D0
:1000E00075088106050C0A38021581257F95017572
:1000F000088106C0C005010980A101850319012AF4
:10010000B700150126B700950175108100C0050CD8
:100110000901A101850419012AA002150126A002E6
:10012000950175108100C00660FF0961A101096297
:10013000150026FF00952075088102096315002629
:10014000FF00952075089102C005010906A101056F
:100150000719E029E7150025019508750181029529
:1001600001750881010507190029FF150026FF0008
:100170009506750881000508190129059505750181
:100180009102950175039101C0000000000000007C
:10019000000000000000000000000000000000005F
:1001A000000000000000000000000000007E0F00C2
:1001B000D4FFFFFFC700000078000000000000002F
:1001C000002A2B28000000000000000000000000B2
:1001D0000000000029000000002C1E3420212224F1
:1001E000342627252E362D3738271E1F202122237F
:1001F0002425263333362E37381F04050607080911
:100200000A0B0C0D0E0F10111213141516171819D6
:100210001A1B1C1D2F3130232D3504050607080934
:100220000A0B0C0D0E0F10111213141516171819B6
:100230001A1B1C1D2F3130354C0001010101010139
:10024000010101020202020202020202030303038D
:10025000030303030404040404040405050505055D
:10026000060606060607070707070808080809091B
:1002700009090A0A0A0B0B0B0C0C0C0D0D0D0E0EC6
:100280000E0F0F0F10101111111212131314141559
:100290001516161717181819191A1A1B1B1C1D1DCD
:1002A0001E1E1F2020212222232424252626272823
:1002B00029292A2B2C2D2D2E2F3031323233343553
:1002C000363738393A3B3C3D3E3F40414243444556
:1002D000464748494A4C4D4E4F5051535455565835
:1002E000595A5B5D5E5F616264656668696B6C6DDF
:1002F0006F7072737577787A7B7D7E808283858755
:10030000888A8C8E8F91939596989A9C9EA0A2A392
:10031000A5A7A9ABADAFB1B3B5B7BABCBEC0C2C497
:10032000C6C9CBCDCFD1D4D6D8DBDDDFE2E4E7E957
:10033000EBEEF0F3F5F8FAFDFF0001020304050609
:100340000708090A0B0C0D0E0F10111213141516C5
:100350001718191A1B1C1D1E1F202122414243443D
:10036000453C3D3E3F403738393A3B3233343536F1
:100370002D2E2F303128292A2B2C232425262729DE
:10038000001E001F002000210022002F0035001455
:10039000001A000800150017002D002B000400169D
:1003A00000070009000A004C00E1001D001B0006C8
:1003B00000190005002C00E000E300E20035040114
:1003C0007E2C004C00460027002600250024002338
:1003D0000030003100130012000C0018001C002E29
:1003E00000340033000F000E000D000B002A00E562
:1003F000003800370036001000110028004F00526E
:100400000051005000027E28002A0044003A003BC0
:10041000003C003D003E002F0235021E021F02205C
:1004200002210222022D022B001E001F00200021AB
:100430000022004C00E100230024002500260027B4
:10044000002C00E000E300E2003504017E2C004CAB
:1004500000450043004200410040003F00300231AF
:1004600002270226022502240223022E023402332E
:10047000020F000E000D000B002A00E500380237C5
:100480000236021000110028004D004B004E004AB9
:1004900000027E28002A0044003A003B003C003D58
:1004A000003E002F0235021E021F022002210222FE
:1004B000022D022B001E001F002000210022004CF4
:1004C00000E100230024002500260027002C00E086
:1004D00000E300E2003504017E2C004C004500439F
:1004E000004200410040003F003002310227022656
:1004F000022502240223022E02340233020F000ED0
:10050000000D000B002A00077E067E37023602101F
:100510000011002800057E047E4E004A00027E285D
:10052000002A00010001000100010001000100019A
:10053000000100010020782178247823780100014F
:1005400000010002780678010001000100010001AD
:100550000001000100010001000100010001000193
:100560000001000100010001000100010001000183
:100570000001000100010001000100277828782512
:10058000782678010001000100010001000100014E
:100590000001000100010001000100010001000153
:1005A000000100010001000100010001000100093B
:1005B000025B00030100A0FA09040000010301012D
:1005C00000092111010001224000070581030800F4
:1005D00001090401000203000000092111010001CA
:1005E00022220007058203200001070503032000E3
:1005F00001090402000103000000092111010001AA
:10060000227B000705840320000112010002000084
:100610000008EEFE606000010102000118034500C1
:10062000720067006F0044006100730068005600AC
:10063000390039000000180354006F007500630092
:100640006800730065006E0073006F0072000000A8
:100650000403090411241FBECFEFDAE0DEBFCDBFD3
:1006600011E0A0E0B1E0E4ECFCE502C005900D92E1
:10067000A03EB107D9F724E0A0EEB1E001C01D9281
:10068000AE32B207E1F70E9456250C94E92D0C9486
:100690000000E8EDF0E080818E7F80831092E20020
:1006A0001092DA001092E100A0EEB0E08C9181602F
:1006B0008C9380818F77808319BCA7EDB0E08C91FB
:1006C0008E7F8C9380818F7E808310921404089596
:1006D0002091E4003091E50095E6A9012091EC001D
:1006E000822F817020FF06C08091E80080FF06C045
:1006F00080E008952091E80022FD1AC08091210435
:10070000882389F0853089F08091EB0085FD0FC04A
:100710002091E4003091E50042175307F9F291501F
:10072000E1F684E0089582E0089583E0089581E091
:1007300008958091230487FF13C08091E80082FF11
:1007400006C08091E8008B778093E80004C0809118
:1007500021048111F2CF0895809121048823D9F3D7
:100760008091E80080FFF8CF8091E8008E77ECCF91
:10077000982F9093E900242F762F50E0891731F0BD
:100780007091EC002091ED005091F00021FD07C028
:100790009F5F973071F78093E90081E00895309171
:1007A000EB003E7F3093EB003091ED003D7F3093C6
:1007B000ED003091EB0031603093EB007093EC0072
:1007C0002093ED005093F0002091EE0027FDE0CF44
:1007D00080E00895B0E0A0E0E0EFF3E00C94732C2B
:1007E000C8EDD0E088818F7E8883E7EDF0E08081DE
:1007F0008160808384E082BF81E0809314048881DB
:100800008E7F888302EE10E0F80110821092DA00E9
:1008100081EEC82ED12CF601108288818F778883D3
:1008200088818068888388818F7D888319BC109235
:100830002104109222041092200410921F0490EEC2
:10084000E92EF12CF70180818B7F80838881816084
:10085000888342E060E080E00E94B803F601808176
:100860008E7F8083F80180818160808380818860B1
:100870008083F70180818E7F808388818061888377
:10088000CDB7DEB7E8E00C948F2CFC0180912904F1
:1008900090912A0486179707A0F06115710529F435
:1008A0009091E8009E779093E80090E061157105C3
:1008B00051F4911108C08091E80082FF34C080E0BB
:1008C0000895BC01F2CF809121048823C1F18530C5
:1008D000C1F18091E80083FD30C08091E80082FD85
:1008E000EACF8091E80080FFE1CF8091F300209172
:1008F000F200382F6115710519F02830310558F0D4
:1009000091E02830310509F090E02091E8002E7741
:100910002093E800CBCF81918093F1006150710961
:100920002F5F3F4FE7CF80912104882341F085302E
:1009300041F08091E80083FFBECF81E0089582E01E
:10094000089583E0089580911604089588E19AE05F
:100950000FB6F894A895809360000FBE9093600046
:10096000FFCF87E797E7909301088093000888E11D
:100970009AE00FB6F894A895809360000FBE90930C
:100980006000FFCFCF92DF92EF92FF922FB7F894E3
:10099000C0901004D0901104E0901204F090130461
:1009A0002FBFA7019601261B370B480B590BCA0115
:1009B000B901FF90EF90DF90CF9008959C014FB761
:1009C000F8948091100490911104A0911204B091B8
:1009D00013044FBF821B930B08952FB7F8946091B7
:1009E00010047091110480911204909113042FBF90
:1009F00008952FB7F8948091100490911104A0915C
:100A00001204B09113042FBF0895A3E0B0E0EBE00F
:100A1000F5E00C94792C20910D0430910E042817E8
:100A20003907A1F090930E0480930D04E0910B041C
:100A3000F0910C04309751F024E029839B838A8342
:100A40000680F781E02DCE01019609952396E2E01C
:100A50000C94952CA3E0B0E0E0E3F5E00C94792C45
:100A60002091090430910A0428173907A1F09093C6
:100A70000A0480930904E0910B04F0910C04309770
:100A800051F023E029839B838A830680F781E02D40
:100A9000CE01019609952396E2E00C94952CE09105
:100AA0000B04F0910C04309739F022E0DC012C9318
:100AB0000480F581E02D09950895FC01680F791FE8
:100AC0008FEF91E32191822728E030E087FF09C072
:100AD000880F892721503109C9F7E617F70791F7E1
:100AE0000895880FF7CFFA01811101C0FB01099524
:100AF000089580910404982F9E7F71F480910404DE
:100B0000817082608093040480910704873918F013
:100B100086E9809307040895843080F7F5CF0E941A
:100B2000F9049C0190911A0380911B03982B21F0EA
:100B3000309311032093100390911C0380911D03A7
:100B4000982B21F030930F0320930E0388E193E05C
:100B50000E944F05089580910D0380FD16C081FD10
:100B600016C082FD16C080910C038823A1F0883244
:100B700080F428E0829FC001112468E270E00E94A6
:100B8000C22C862F672B39F0089582E0089584E007
:100B9000089588E0089581E0089580910D0380FD17
:100BA00014C081FD14C082FD16C080910B03882300
:100BB00081F08E3180F420E5829FC00111246EE126
:100BC00070E00E94C22C862F089584E1089588E287
:100BD000089588E0089580E5089580E0089563E031
:100BE00070E08DE792E00E945D0590917C02891390
:100BF00018C0E0917D02ED30A4F488E0E802F00135
:100C00001124E050FF4F0680F781E02D309749F026
:100C100020EA32E040917F0260E872E080917E023B
:100C200009950895E0E6F2E0868D80934801878D6E
:100C300080935B010895F894E82FE295EF70F0E05F
:100C400031A1282F2F7081E090E001C0880F2A95F4
:100C5000EAF7982F9095932391A392A1892B82A3D1
:100C6000789408959091E70292FF06C0282F28718A
:100C70002830F9F4877F846093FF06C0282F2871FD
:100C80002831F1F4877E84612091E80220FF06C0BC
:100C9000382F38713830D9F4877F816021FF06C042
:100CA000282F28712831D1F4877E816194FD877EB9
:100CB0000895282F24712430F9F68B7F8860DCCFCB
:100CC000282F2471243101F78B7E8861DDCF382FE6
:100CD0003171313019F78E7F8860E0CF282F217174
:100CE000213121F78E7E8861E1CF82389105B9F1FB
:100CF000B0F48133910509F47DC048F4893291053F
:100D000009F46DC08A32910509F47BC008958533DA
:100D1000910509F45FC08933910509F10895833E77
:100D20009105D9F138F4803E910529F1823E910573
:100D300079F10895863E9105D9F1873E910509F430
:100D40003EC0843E910541F52091E80221FF24C078
:100D50008091E70284FD19C087EE90E0089520910C
:100D6000E702237009F05AC02091E80223FF14C063
:100D700089E290E008952091E70220FD38C030918B
:100D8000E80230FF09C024FF43C090E080E00895EE
:100D90002091E70222FDF7CF08952091E70222FD7E
:100DA0003AC03091E80230FD39C024FFF5CFEDCFD5
:100DB0002091E70223FFF0CF24FDE7CFCDCF209194
:100DC000E70223FD2EC03091E80231FFEECF84EE22
:100DD00090E008952091E70225FFDECFC9CF209152
:100DE000E70225FD21C02091E80223FFD5CF89E34A
:100DF00090E0D2CF2091E70226FFCECF8AE290E0AA
:100E000008952091E70226FFC7CF81E390E008957F
:100E100083EE90E0089582EE90E0089580EE90E0F9
:100E2000089586EE90E0089585E390E008951F937D
:100E3000CF93DF930E947506EC01C11580E5D807BA
:100E4000F0F5C11580E4D80708F09CC0C03ED1057C
:100E500020F5CD3CD10508F082C0C83AD10578F420
:100E6000C53AD10508F073C0C130D10519F12097FA
:100E700009F1C430D105F0F4D0E0C0E01BC0C33CA0
:100E8000D105D0F7C85AD0E0CC0FDD1FC258DE4FD5
:100E90000990D881C02DD4640DC0C11580E2D80757
:100EA00008F0D1C0C11581E0D80708F05AC0C83E8B
:100EB000D10510F7CE01DF91CF911F910895C03673
:100EC00082E5D80718F5C03482E5D80708F06BC072
:100ED000C03282E5D80708F05FC0C11582E5D807A7
:100EE00008F497C02C2F2695269580E2289F900124
:100EF00011248C2F8370C1E0D0E002C0CC0FDD1F25
:100F00008A95E2F7C22BD32BDD68D4CFC03A82E5B5
:100F1000D80760F4C03882E5D80708F459C0CF710B
:100F2000D0E0DC2FCC27C46FD06AC4CFC03C82E5B0
:100F3000D80708F462C0C03E82E5D80708F09CCF0D
:100F4000DC2FCC27CC27DF71C06FD06AB3CFC55A56
:100F5000D0E0C558DE4FC881D0E0D064ABCFD065BB
:100F6000A9CF8D2F0E943206182FCE0199270E94FB
:100F70007506C12FD0E0DC2FCC27CC27DF71C82B22
:100F8000D92B98CFCE0199270E947506CC27DF7008
:100F9000C82BD92BD06A8ECFCF71D0E0DC2FCC27D5
:100FA000C16FD06A87CF2C2F26952695277080E2B7
:100FB000289F900111248C2F8370C1E0D0E002C0E3
:100FC000CC0FDD1F8A95E2F7C22BD32BDC6872CFE2
:100FD0002C2F26952695277080E2289F90011124BA
:100FE0008C2F8370C1E0D0E002C0CC0FDD1F8A954A
:100FF000E2F7C22BD32BDA685DCF8C2F8F710E9462
:101000003206C82FD0E0DC2FCC27CC27DF71D0628E
:1010100051CF8C2F8F710E94320655E0D695C7951F
:101020005A95E1F7CF70D0E0DC2FCC27282F30E0A5
:1010300084FF05C044E0220F331F4A95E1F7C22B1D
:10104000D32BD06937CF8D2F8F710E943206182F86
:10105000CE0199270E947506C12FD0E0DC2FCC2746
:10106000CC27DF71C82BD92BD2CF80914D028111B3
:1010700010924D020895809590914C029823909380
:101080004C020895E4EEF1E09191891303C0DF0171
:1010900011971C9291E0EA3EF907B1F70895A4EE8A
:1010A000B1E0EFEF90E02D91821751F0EF3F19F48E
:1010B000211101C0E92F9F5F9630A9F7EF3F09F496
:1010C00008950E2E000CFF0BEE51FE4F8283089503
:1010D000209141029091100256E0291302C080E055
:1010E000089530E0529FF001539FF00D1124EF5E00
:1010F000FD4F7181761306C07081781303C0728131
:10110000741304C02F5F3F4F2770E7CF81E008952D
:101110008091410290911002981301C008958F5F51
:101120008770FACF292F9A3078F5873068F590E0EC
:1011300037E0239F800D911D1124682F677023E0F5
:10114000969587952A95E1F7FC01EE0FFF1FE80FB2
:10115000F91FE151FE4F50E040E080E0219130E086
:10116000062E02C0369527950A94E2F721703327A0
:10117000042E01C0220F0A94EAF7822B4F5F5F4FC3
:101180004330510559F7089580E00895292F9A308A
:1011900098F5873088F590E037E0239F800D911D0A
:1011A0001124282F277041E001C0440F2A95EAF747
:1011B00023E0969587952A95E1F7FC01EE0FFF1F36
:1011C000E80FF91FE151FE4F30E020E070E051914F
:1011D000DF011197CB01022E02C0969587950A94E4
:1011E000E2F7817081958527842385278C932F5F73
:1011F0003F4F2330310559F70895982F9670963058
:1012000021F488608093E6020895877FFBCF909158
:10121000E60221E030E0F90101C0EE0F8A95EAF71D
:10122000D90102C0AA0FBB1F6A95E2F7EA2B01C0E1
:10123000220F4A95EAF7892F8E23E81305C0292B40
:10124000822F0E94FD08089520952923F9CF21E0DF
:1012500030E001C0220F8A95EAF720958091E602DE
:1012600082230E94FD08089590914202809589236F
:1012700080934202282F277091F4282F082E000C0B
:10128000330B9217130659F09091E80292FF07C0B2
:101290008595859585950E942709109242020895AB
:1012A00021E030E001C0220F8A95EAF78091E60242
:1012B000822B0E94FD08089580934E020895CF93DB
:1012C000DF93C091EB01C80F41F41092EB0160E095
:1012D00070E0CB01DF91CF9108958C2F64E10E94E3
:1012E000A02CD92F682F880F770B880B990B0E94A1
:1012F0006F2DD093EB01CD5EC73260F31092EC01FD
:10130000E9CFCF93DF93C091EC01C80F41F4109265
:10131000EC0160E070E0CB01DF91CF9108958C2F5C
:101320006AE00E94A02CD92F682F880F770B880BBA
:10133000990B0E946F2DD093EC01C75FC33160F30E
:101340001092EB01E9CF0F931F93CF93DF93C82F38
:10135000D62F082F10E06003B0011124072E000CD7
:10136000880B990B0E946F2D2D2F0D2E000C330B27
:1013700037FF03C03195219531092330310584F0C1
:1013800021E02C0F2330D0F41D167CF433E0C39FF2
:10139000B0011124072E000C880B990B0E946F2DB1
:1013A000DF91CF911F910F910895C801880F991F68
:1013B000880F991FB801681B790BECCFCC5FC9303F
:1013C00078F71D1634F4B801660F771F660F771F84
:1013D000E1CF2CEF2003B001219F700D1124DACF53
:1013E000AEE1B0E0E6EFF9E00C94712C4B8B5C8B36
:1013F0008F8B988FE98EFA8E0B8F1C8FD22E2D8FAC
:10140000F32E3E8F862FB72E9091ED01992309F48C
:1014100051C00E9481090E94372DC62E8B2D8195C7
:101420000E945F090E94372DE62EB12CA12C8091DD
:10143000EA01882309F451C0802F0E9481090E948B
:10144000372DF62E812F81950E945F090E94372D3E
:10145000D62E60E000E0AD8ABE8AEF8AC88E86E0B4
:10146000FE017396DE01179601900D928A95E1F7C1
:101470004C895A8D802F002E000C990B8A0D911DDE
:10148000A7FC9A9580382FEF9207C4F18038910518
:10149000BCF5062E000C770B6B0D711DB7FC7A9511
:1014A00060389FEF790774F1962F603871055CF111
:1014B0009FE729C0EF88C88C60916C010E94A30946
:1014C0000E94372DA62EA19460916B018B2D0E9456
:1014D000A3090E94372DB62EAACF60916A01802FF2
:1014E0000E94A3090E94372D062F01956091690182
:1014F000812F0E94A3090E94372DADCF80E8C9CF6C
:101500008FE7C7CF90E86F2D0F2C000C770B6C0D79
:10151000711DC7FC7A9560382FEF7207B4F16038FF
:101520007105ACF52D2D0D2C000C330B2E0D311D3E
:10153000E7FC3A9520387FEF37075CF1203831051A
:1015400054F5452B488789879A872B876C8786E0D7
:10155000FE013796DE01119601900D928A95E1F712
:1015600086E0FE013196DE011D9601900D928A956E
:10157000E1F72D853E854F85588969897A8980E014
:1015800090E06E96EAE00C948D2C60E8CBCF6FE78C
:10159000C9CF20E8D6CF2FE7D4CF0F931F93CF9397
:1015A000DF938B01EA0190912104943061F58093DF
:1015B000E9008FEF9091E800815095FD06C095ED10
:1015C0009A95F1F700008111F5CF8091E80085FF31
:1015D0001AC00E946803811111C08091E80085FD46
:1015E00006C08091E8008E778093E800F2CFF80182
:1015F00081918F018093F100219779F78091E80024
:101600008E778093E800DF91CF911F910F9108951D
:1016100043E050E0BC0184E00E94CD0A089546E01A
:1016200050E0BC0184E00E94CD0A0895CF93DF937F
:10163000EC0148E050E0BC0181E00E94CD0A88E066
:10164000FE01A7E1B4E001900D928A95E1F7DF91E8
:10165000CF910895CF92DF92EF920F931F93CF9384
:10166000DF93CDB7DEB7C25DD1090FB6F894DEBF08
:101670000FBECDBF609176018091040480FF4CC005
:10168000E9E3F3E09E012F5F3F4F8E010D521F4FA4
:10169000C901A4914A2F50E0DA01AA0FBB1FA40F81
:1016A000B51FAE5CBC4FCD90DD90EC90D901CD92D2
:1016B000DD92ED929D013196A017B10751F720916F
:1016C000750143E0249F800D911D1124539A2BB185
:1016D000277F3BB138605FB7F894FC01649FE00D51
:1016E000F11D1124BF018617970749F55FBFEFE58C
:1016F000F4E03197F1F700C00000CE52DF4F0FB693
:10170000F894DEBF0FBECDBFDF91CF911F910F9137
:10171000EF90DF90CF9008958091770190917801BC
:1017200023E0829FF0011124EE5CFC4F891708F042
:10173000A7CF1182108212828F5F3396F7CFDC0120
:101740004D91CD01E8E03BB9000000C047FF2BB947
:10175000440F000000C000C000C02BB900C0EA95D3
:1017600091F7C1CFE4E0F4E080818E7F8083EFE2E7
:10177000F3E08281816082830E942A0B0895B0E0A9
:10178000A0E0E5ECFBE00C94712C7C015B016A01AC
:101790008091D50201E010E08A3010F40AE010E0F8
:1017A000C1E0D0E0B501C701F6010995811104C07F
:1017B00021960C171D072CF4CDB7DEB7EAE00C9488
:1017C0008D2CCC9F9001CD9F300D300D112490E0D9
:1017D00080E045E34A95F1F70000019682179307F0
:1017E000C1F7E0CF80915F02811119C088EC90E0D1
:1017F0002091E30027FD10C0EFE3FCE93197F1F7FA
:1018000000C000000197A1F782E080935F020E9470
:1018100049031092210403C081E080935F0281E0BC
:1018200090915F02913011F080E0089508950E9438
:10183000F20B882359F0E0910B04F0910C043097DF
:1018400029F00190F081E02D0995089580E0089538
:1018500098E020E83AE03A95F1F700C04698382F32
:10186000322351F0599A3AE03A95F1F700C0469A7E
:101870002695915079F708955998F5CF89988AE07F
:101880008A95F1F700C08AEB0E94280C85E38A95BF
:10189000F1F700008AE50E94280C8AE08A95F1F7AA
:1018A00000C0599A899A089589982AE02A95F1F7F3
:1018B00000C00E94280C85E38A95F1F70000599A30
:1018C00098E080E02AE02A95F1F700C046982AE0E7
:1018D0002A95F1F700C0469A29B122FB222720F968
:1018E000880F822B915071F79AE09A95F1F700C01A
:1018F000899A0895CF9380E00E94540C813129F099
:1019000090E0C0E08C2FCF91089580EA8A95F1F79E
:1019100082E00E94540C87FFF3CF80EA8A95F1F7AA
:1019200083E00E94540CC82F80EA8A95F1F784E086
:101930000E94540C982FE6CFACE0B0E0E2EAFCE065
:101940000C94772C4F8358878B879C87162F072FF3
:101950000E947A0C811104C0911102C0902F812F36
:1019600089879A8786E0FE013796DE0111960190FD
:101970000D928A95E1F729813A814B815C816D81D5
:101980007E8180E090E02C96E4E00C94932CCF9341
:10199000DF93C6E5D2E060E0CE010E94032D2196E0
:1019A000C11584E0D807B9F7DF91CF9108951F934F
:1019B000CF93DF93122F8430E0F46A30D0F44730B5
:1019C000C0F4C42FD0E0CC0FDD1F9EE0699FC00D96
:1019D000D11D11249CE8899FC00DD11D1124632FB6
:1019E000CE0186960E94032D612FCE0187960E941C
:1019F000032DDF91CF911F910895AF92BF92CF92A7
:101A0000DF92EF92FF921F93CF93DF938FE7C82E61
:101A100083E0D82ED0E07601C0E014C0F501259116
:101A20003491412F6C2F8D2F0E94D70C82E0A80E8D
:101A3000B11C1F5F173091F78EE0E80EF11CCF5FED
:101A4000CA3019F0570110E0E9CFDF5F8CE8C80E0B
:101A5000D11CD43001F7DF91CF911F91FF90EF900F
:101A6000DF90CF90BF90AF900895CF93C82F6FEFC6
:101A7000811163E282E290E00E94032D6FEFC111B9
:101A800064E083E290E00E94032D6FEFC11169E0F2
:101A900084E290E00E94032DCF91089580E00E949F
:101AA000350D60E085E290E00E94032D0E94FD0C60
:101AB0000E94C70C81E00E94350D08950F931F937B
:101AC000CF93DF93843030F56A3020F5473010F53E
:101AD000C42FD0E0CC0FDD1F2EE0629FC00DD11DC2
:101AE00011243CE8839FC00DD11D1124CE018696A0
:101AF0000E94EF2C082F10E0102F0027CE018796B0
:101B00000E94EF2C9801282BC901DF91CF911F91E2
:101B10000F91089590E080E0F8CF462F7A3040F49E
:101B2000673030F4843020F4672F0E945E0D0895F2
:101B300090E080E00895CF92DF92FF920F931F9381
:101B4000CF93DF936C010091E60280914E02082B47
:101B5000C3E0D0E010E0FC2EC8010C2E02C0959529
:101B600087950A94E2F780FD0CC02197A0F7F12C2D
:101B70008F2DDF91CF911F910F91FF90DF90CF902C
:101B80000895B6018C2F0E948D0D0E9417070197B2
:101B900061F3EECFCF93DF93EC010E949B0DBE016A
:101BA0000E948D0D0E941707DF91CF910895FC01CF
:101BB00083819481892B29F08081918189238F3FB2
:101BC00051F480E00895843FE1F717C0883EA8F003
:101BD000813FB9F712C0808191810E94CA0D929510
:101BE0009F70963099F358F4925F9F70923048F747
:101BF000803F19F040F7883E20F781E008959A5F12
:101C0000F4CF82E290E00E94EF2C833289F483E2E9
:101C100090E00E94EF2C843059F484E290E00E941E
:101C2000EF2C91E0893009F090E0892F81700895C0
:101C300080E0FCCFCF92DF92EF92FF926B017C01AC
:101C40000E947905B701A60188E090E00E94152D59
:101C5000FF90EF90DF90CF900895B0E0A0E0E3E335
:101C6000FEE00C946F2C182FC62FD42F822E0091DB
:101C7000040400FF4CC080910504811308C08091CA
:101C80000604861304C080910704841729F080910C
:101C90003103826080933103E02FE695F0E0E25358
:101CA000FE4F808180932F03802F8E7F8230E9F456
:101CB000ED2FD73908F0E6E9F0E0E75CFD4FC11100
:101CC0002BC02491F22FE22F00FF0FC080917701EB
:101CD0009091780133E0839FD0011124AE5CBC4F1A
:101CE000891708F48EC00E942A0B10930504C09334
:101CF0000604D0930704882051F060910404709189
:101D0000050480910604909107040E941A0ECDB735
:101D1000DEB7ECE00C948B2CEC2EF12CE4919E2E93
:101D2000CE2ED12C26E0129FC00111242FEF30E0DF
:101D3000B9010E94AE2C812F90E0880F991FF5E524
:101D4000F69FA001F79F500D1124841B950BB82E10
:101D5000BB0CB80EA9014E195F094C9DC0014D9DE9
:101D6000900D5C9D900D1124F92FCB9DA0011124A5
:101D7000452F5527D901A41BB50BAC9DA001AD9DE6
:101D8000500DBC9D500D1124D901AB19B1095D0155
:101D9000AE9CD001AF9CB00DBE9CB00D1124AB2FFA
:101DA000BB272A1B3B0B2C9DD0012D9DB00D3C9DCC
:101DB000B00D11242B2F62307105A1F050F4611584
:101DC000710509F481CF6130710581F0292FF52F5C
:101DD0007BCF6430710569F080F06630710509F4DD
:101DE00073CFF4CF2E2FE92FFB2F6ECF2E2FE52FA1
:101DF0006BCF292FFE2FEB2F67CFE92FF92D252F42
:101E000063CF1196EC9311972C931296FC93129733
:101E10008F5F139665CFE4E0F4E0438121E1421B3C
:101E200008F440E021E0628181810E942D0E089536
:101E3000E4E0F4E0438121E1420F08F44FEF21E0B8
:101E4000628181810E942D0E0895E4E0F4E06281B8
:101E500021E1621B08F460E021E0438181810E945E
:101E60002D0E0895E4E0F4E0628121E1620F08F4B0
:101E70006FEF21E0438181810E942D0E0895E4E0FF
:101E8000F4E0818121E04381628188500E942D0E1F
:101E90000895E4E0F4E0818121E043816281885F7C
:101EA0000E942D0E089580910804882319F0815016
:101EB00080930804609104047091050480910604E5
:101EC000909107040E941A0E0895809108048330AF
:101ED00018F48F5F809308046091040470910504E6
:101EE00080910604909107040E941A0E0895809133
:101EF000040480FF1EC0817082608093040480917E
:101F00003103816080933103662351F060910404B2
:101F10007091050480910604909107040E941A0EA6
:101F200020E04091070460910604809105040E941E
:101F30002D0E0895E4E0F4E080818160808360E00C
:101F400086950E94770F08958091040486958150AC
:101F500009F481E061E00E94770F089561E081E07B
:101F60000E94770F0895E4E0F4E083E0808311821B
:101F70008FEF828386E983831482AFE2B3E0129607
:101F80008C911297836012968C936081718182810B
:101F900093810E941A0E089546E050E062E173E0DA
:101FA00084E293E00E94D32D892B21F084E293E018
:101FB0000E944F059091250386E0E4E2F3E0DF0103
:101FC000282F1D922A95E9F790932503A2E1B3E00B
:101FD00001900D928A95E1F70895A0E3B0E0E3EF58
:101FE000FFE00C94752C0E94F20B882309F4D2C0F8
:101FF00060912B0370912C0380912D0390912E03FF
:102000000E94C204672B682B692B09F4C3C00E948D
:10201000ED0460932B0370932C0380932D03909316
:102020002E0350912A03509325034091240360917D
:1020300026037091270380912803909129030E9421
:102040009C0C209324033093250340932603509344
:102050002703609328037093290330932A030E9477
:10206000F20B882309F49AC086E0E4E2F3E0DE0193
:10207000179601900D928A95E1F786E0FE0137965A
:10208000DE01959601900D928A95E1F786E0FE01BA
:10209000B596DE01119601900D928A95E1F786E0E2
:1020A000FE013196A4E2B3E001900D928A95E1F72A
:1020B00086E0EEE1F3E0DE01179601900D928A953D
:1020C000E1F786E0FE013796DE019B9601900D92C6
:1020D0008A95E1F786E0FE01BB96DE01119601903C
:1020E0000D928A95E1F786E0FE013196AEE1B3E00C
:1020F00001900D928A95E1F70E94F20B882309F472
:1021000087C086E0E4E2F3E0DE01539601900D9291
:102110008A95E1F786E0EEE1F3E0DE0117960190A3
:102120000D928A95E1F7EF80F88409851A852B8551
:102130003C854B895C896D897E898F89988D0E9449
:10214000F0092D873E874F87588B698B7A8B86E005
:10215000FE013D96DE01119601900D928A95E1F700
:1021600086E0FE013196A4E2B3E001900D928A95DB
:10217000E1F786E0E8E1F3E0DE01119601900D92CF
:102180008A95E1F78A8190912503892B8093250315
:102190000E94CC0FE096E6E00C94912C86E0E4E2FD
:1021A000F3E0DE01179601900D928A95E1F786E043
:1021B000FE013796DE01599601900D928A95E1F75E
:1021C00086E0FE017996DE01119601900D928A95C6
:1021D000E1F786E0FE013196A4E2B3E001900D92B2
:1021E0008A95E1F786E0EEE1F3E0DE0117960190D3
:1021F0000D928A95E1F786E0FE013796DE015F9643
:1022000001900D928A95E1F786E0FE017F9665CFF9
:1022100086E0EEE1F3E0DE01539601900D928A959F
:10222000E1F786E0E4E2F3E0DE011D9601900D9215
:102230008A95E1F7ED84FE840F85188929893A890A
:102240004B895C896D897E898F89988D0E94F00900
:102250002F83388749875A876B877C8786E0FE0102
:10226000379678CF662309F472C08D3C41F40E9402
:10227000CD05819580931B030E948F0508958E3CA8
:1022800019F40E94CD05F6CF8F3C31F40E94CD05A4
:10229000819580931A03F0CF803D19F40E94CD05FB
:1022A000F8CF893D29F40E94AB0580931C03E4CF4D
:1022B0008A3D21F40E94AB058195F7CF8B3D31F427
:1022C0000E94AB05819580931D03D6CF8C3D19F4F8
:1022D0000E94AB05F8CF9FE2980F983020F5282F89
:1022E000215D330BA90121E030E001C0220F4A95A6
:1022F000EAF790911903922B90931903815D21E0E5
:1023000030E0A90102C0440F551F8A95E2F7CA01C7
:1023100020912503662309F493C0822B8093250323
:102320000E94CC0F08958D3D31F480910D038160A2
:1023300080930D03A1CF8E3D21F480910D03826027
:10234000F7CF8F3D19F580910D038460F1CF909107
:102350001A038D3C59F420911B0327FF0DC01092E6
:102360001B0391110BC010920B0308C08E3CB1F4FB
:1023700020911B0312169CF39923B1F090911C033A
:1023800020911D03922B11F410920C03482F415DF4
:10239000550B4830510508F4B1CF6ECF8F3C39F45E
:1023A00097FFEACF10921A0390911B03DACF803D7A
:1023B00019F41916BCF3E0CF20911C03893D29F4D0
:1023C0001216D4F610921C03D7CF8A3D19F427FFBA
:1023D000D3CFF8CF20911D038B3D29F427FFCCCF1D
:1023E00010921D03C9CF8C3D19F41216CCF3C4CF43
:1023F0002FE2280F283088F4282F215D330BA90104
:1024000021E030E001C0220F4A95EAF72095309193
:102410001903232320931903AFCF20910D032E7F9F
:102420008D3D59F020910D032D7F8E3D31F08F3D74
:1024300009F0A2CF20910D032B7F20930D039CCF99
:10244000809582236BCF80914C0290914B02892B17
:102450008093E20190914D02992391F0892B809312
:10246000E20120E084EE91E0FC013191CF013111D5
:102470002F5FF1E08A3E9F07B9F721110E943508CE
:1024800048E050E063E472E082EE91E00E94D32DD8
:10249000892BA9F088E0E2EEF1E0A3E4B2E001903C
:1024A0000D928A95E1F7E0910B04F0910C043097BE
:1024B00031F00280F381E02D82EE91E009950895DC
:1024C000CF9310924C02C6E0E4EEF1E0DF018C2FD6
:1024D0001D928A95E9F790E080E00E942A0590E03D
:1024E00080E00E94050510924B020E942312E8E151
:1024F000F3E0DF011D92CA95E9F710920B031092E9
:102500000C0310920D030E948F05CF910895AAE24B
:10251000B0E0EDE8F2E10C94782C83E294E02091B5
:10252000F100DC012D93CD01B4E08B329B07B9F7AC
:1025300080912404833009F472C0B8F4813009F426
:1025400049C0823009F4B3C08091E80083FF8BC298
:1025500080912304909124049A3008F084C2E92FDA
:10256000F0E0E551F24D0C94D62C8A3009F48EC07F
:102570008B3009F471C0893039F78091230481329E
:1025800019F78091270490912804009711F0029781
:10259000D9F68091E800877F8093E8008091E80079
:1025A00082FF38C09091F3008091F200029731F4DD
:1025B0008091F100813011F0863021F48091F1009A
:1025C000809316048091E8008B778093E8000E9446
:1025D0009903BACF80912304813A09F0B5CF809155
:1025E000E800877F8093E800809127049091280479
:1025F000892B61F468E087E194E070E00E94450473
:102600008091E8008B778093E8009ECF60E090E0B7
:1026100080E0F3CF809121048111C0CF95CF8091CC
:102620002304813A09F090CF8091270490912804E7
:10263000892B09F089CF8091E800877F8093E8009B
:102640008091E80080FFFCCF80917A018093F100B7
:102650008091E8008E77B9CF80912304813209F010
:1026600073CF8091270490912804892B09F06CCFB7
:102670008091E800877F8093E8000E949903809111
:10268000250480937A010E9460125ECF809123041A
:10269000813209F059CF8091E800877F8093E8006C
:1026A0000E94990380912604809315044DCF809158
:1026B0002304813A09F048CF8091E800877F809316
:1026C000E8008091E80080FFFCCF80911504BECF28
:1026D000803899F0823809F0C6C1809127048F7044
:1026E000873008F0C0C18093E9008091EB0085FB42
:1026F000882780F91092E90006C080911F0490910C
:102700002004911182609091E800977F9093E800F7
:102710008093F1001092F1008091E8008E779FC1C4
:10272000882309F48DC1823009F09DC18091250470
:10273000811190C1809127048F702FEF280F2630D0
:1027400008F091C18093E9002091EB0020FF82C145
:10275000933031F48091EB0080628093EB007AC17A
:102760009091EB0090619093EB0021E030E001C08C
:10277000220F8A95EAF72093EA001092EA008091EE
:10278000EB008860EACF81116EC1109125041F779C
:102790008091E3008078812B8093E3008091E800B2
:1027A000877F8093E8000E9499038091E80080FF72
:1027B000FCCF8091E30080688093E30082E01111F8
:1027C00083E0809321044FC18058823008F04BC1D0
:1027D00020912504309126042C3DE3E03E07A1F52D
:1027E00083E08A838AE289834FB7F894DE011396E7
:1027F00020E03EE051E2E32FF0E050935700E491F7
:1028000020FF03C0E295EF703F5FEF708E2F90E0E6
:10281000EA30C0F0C7968D939D932F5F243159F70E
:102820004FBF8091E800877F8093E8006AE270E004
:10283000CE0101960E9445048091E8008B77809339
:10284000E80011C1C096E7CF809127049091280439
:10285000432F55274330510509F44AC078F54130DC
:10286000510509F47AC08BE590E0EFEAF5E04230DB
:10287000510509F0F8C02091E800277F2093E80077
:102880002091290430912A048217930708F49C01AF
:1028900040E02115310509F065C0411163C0809108
:1028A000E80082FDC9CF80912104882329F2853078
:1028B00019F28091E80083FFF2CFBECF413251057B
:1028C00009F43CC04232510509F0CDC08330910576
:1028D00008F0C9C0FC01EE0FFF1FED52FE4F019042
:1028E000F081E02D80539E4FDC018C9190E01AC066
:1028F000332721303105D1F02115310561F0223027
:10290000310509F0B0C0ECE1F6E0E4918E2F90E0E3
:10291000ECE1F6E007C0E0E5F6E0E4918E2F90E010
:10292000E0E5F6E0009709F49EC0A5CFE6E3F6E007
:10293000E4918E2F90E0E6E3F6E0F4CF833091054A
:1029400008F091C0880F991FFC01E752FE4F0190DB
:10295000F081E02D89E090E08ECF82E190E0EAE026
:10296000F6E089CF80912104882309F465CF853072
:1029700009F462CF8091E80083FD5ECF8091E8008A
:1029800082FD8DCF8091E80080FF83CF9091F3008E
:102990008091F2002115310519F08830910550F031
:1029A00041E0089709F040E08091E8008E7780933D
:1029B000E8006FCF44914093F100319621503109E6
:1029C0000196E8CF803809F04EC08091E800877FFB
:1029D0008093E800809122048093F1009DCE8111C4
:1029E00042C0109125041230F0F58091E800877FF5
:1029F0008093E800109322040E949903112311F0A0
:102A000084E005C08091E30087FDFACF81E08093E8
:102A1000210442E061EC81E00E94B80342E261ECF3
:102A200084E00E94B80342E261EC82E00E94B803B5
:102A300042E260EC83E00E94B8038091210413C05D
:102A400080912504813079F481E0933009F080E0B1
:102A5000809320041092E9008091E800877F8093A2
:102A6000E8000E9499038091E80083FF0AC08091EA
:102A7000E800877F8093E8008091EB00806280937C
:102A8000EB00AA96E3E00C94942C882321F00E949A
:102A90003B080E9423120895882339F090914C023C
:102AA000982B90934C020E9423120895882309F4D6
:102AB00056C0823879F40E94170C81FF50C089E318
:102AC0000E944F080E94231289E30E9442080E943C
:102AD00023120895833859F40E94170C80FF3FC0D9
:102AE00083E50E944F080E94231283E5EECF8438CD
:102AF00059F40E94170C82FF32C087E40E944F08ED
:102B00000E94231287E4E1CF9CEF980F913AE8F2FC
:102B100090E2980F983050F4877091E001C0990FBF
:102B20008A95EAF7892F0E943B08D1CF9BE5980F41
:102B3000933028F490E080E00E942A05089598E5FB
:102B4000980F9B3128F490E080E00E9405050895DD
:102B500093E3980F933118F460E00E9432110895C6
:102B6000CF93C82F8823C9F08238C9F40E94170C6C
:102B700081FD13C089E30E944F080E9423122FEFAA
:102B800087EE93E0215080409040E1F700C00000C4
:102B900089E30E9442080E942312CF91089583384E
:102BA000A1F40E94170C80FDF8CF83E50E944F0826
:102BB0000E9423122FEF81EE94E02150804090403C
:102BC000E1F700C0000083E5E4CF8438A1F40E945F
:102BD000170C82FDE2CF87E40E944F080E94231267
:102BE0002FEF81EE94E0215080409040E1F700C04B
:102BF000000087E4CECF8CEF8C0F813A68F4E4EECE
:102C0000F1E08191C817E9F121E0EA3EF207C9F746
:102C10008C2F0E944F08BFCF80E28C0F883068F461
:102C2000C77021E030E001C0220FCA95EAF7809119
:102C30004C02822B80934C02AECFEBE5EC0FE330DD
:102C400040F4F0E0E558FE4F808190E00E942A05B4
:102C5000A4CFE8E5EC0FEB3150F4F0E0EE0FFF1FEE
:102C6000E258FE4F808191810E94050596CF83E353
:102C70008C0F833108F091CF61E08C2F0E943211CC
:102C80008CCF8C2F0E9442080E942312C1CF1F9329
:102C9000CF93DF93182FD0E0C0E0893311F4C0E563
:102CA000D0E0812F0E94B015209739F4812F0E9427
:102CB0005615DF91CF911F9108958FE99FE00197FD
:102CC000F1F700C000002197EFCF0F931F93CF9330
:102CD000DF93C62FD42F022FFC0182818823A9F015
:102CE00060932D040E94F90490932C0480932B048C
:102CF000C77081E001C0880FCA95EAF70E944C15A1
:102D0000DF91CF911F910F91089580912D04681349
:102D100032C080912B0490912C040E94DE048837ED
:102D2000910548F510E21D0FCD17B9F080E28C0F28
:102D3000883040F4C77081E001C0880FCA95EAF777
:102D40000E944515183048F481E09D2F977001C00E
:102D5000880F9A95EAF70E944C15802F0E9447161B
:102D6000183070F6D77081E001C0880FDA95EAF765
:102D70000E944515C5CFC77081E001C0880FCA9574
:102D8000EAF7F6CF1092EA021092EB021092EC02F0
:102D90001092ED0283E190E00E94F72C6093EA022A
:102DA0007093EB028093EC029093ED0280E066302A
:102DB00018F081E08093EA02763080F081E0809321
:102DC000EB024091EA025091EB026091EC027091AB
:102DD000ED0283E190E00E94152D02C08111F1CF38
:102DE000089567EE7EEF90E080E00E94212D60E084
:102DF00082E090E00E94032D60E083E090E00E947A
:102E0000032D10924E0260E074E184E090E00E9495
:102E1000212D60E086E090E00E94032D6FEF87E0B7
:102E200090E00E94032D40E050E0BA0188E090E07D
:102E30000E94152D60E08DE090E00E94032D40E09F
:102E400050E0BA0188E190E00E94152D60E087E132
:102E500090E00E94032D40E050E0BA018CE190E048
:102E60000E94152D70E060E080E290E00E94212D2C
:102E700040E050E0BA0188E190E00E94152D80E02A
:102E80000E94350D0E944E0D40E050E0BA018FE0E7
:102E900090E00E94152D0E94C21608959091E802BC
:102EA00092FB222720F9281779F080FB92F9909362
:102EB000E8026091E7027091E80284E090E00E94ED
:102EC000212D82E00E943409089590E080E00E9464
:102ED000FD2C873E9E4F19F40E94010E089580E05C
:102EE0000895A8E0B0E0E7E7F7E10C946B2C8C01C3
:102EF000DC0113968D919C911497892B39F08C915C
:102F000011969C9189238F3F09F0CCC52896E0E16A
:102F10000C94872C0E949B0DF82E682F89819A8132
:102F20000E94C60869817A818F2D0E948D0D7C01D7
:102F3000F8018281882309F427C697013757203882
:102F4000310508F017C6FFE0FE1508F489C08FEFC1
:102F500093E00E94EF2C811183C0E6E5AE2EE2E003
:102F6000BE2EE11047C0FE01339686E0DF011D92C0
:102F70008A95E9F77AE0472E7501BFEFEB1AFB0A55
:102F8000C5010E94EF2C89831A82882309F468C046
:102F9000813009F078C06501E2E0CE0ED11CC70196
:102FA0000E94EF2C8A83882309F45AC09FEF980F60
:102FB000933070F5F3E0AF0EB11CC6010E94EF2C08
:102FC0008B83882309F44CC01C82DE0111967D019D
:102FD000F7012081222381F2213009F094C09181F0
:102FE0008281913009F051C0F2E0EF0EF11C0E9495
:102FF000471652C0A11424E0B20691F1C5010E9407
:10300000EF2C811101C0EA943FEFA31AB30AA9CFB4
:1030100056018430D1F662E0E62EF12C56012FEFF6
:10302000A21AB20AC6010E94EF2CE1E0F0E0EC0F18
:10303000FD1FEE0DFF1D8083882391F08C3741F436
:10304000E2E0F0E0EC0FFD1FEE0DFF1D1082BDCFA2
:103050003FEFE31AF30A650187E0E816F104F1F6A1
:1030600080914202877009F451CFD80112968C9159
:10307000882309F44BCF8091E80282FF47CF82E09A
:103080000E94340943CF5701A0CF923049F422E087
:10309000E20EF11C0E94B015EFEFEE1AFE0A98CF77
:1030A000933031F432E0E30EF11C0E945615F4CF58
:1030B000943021F08FEFE81AF80AEECF92E0E90E93
:1030C000F11C30E020E0B7016F5F7F4FD701119610
:1030D0004C918053990B8A30910550F02150310961
:1030E000D8F2EFE9FFE03197F1F700C00000F6CF2A
:1030F000429EF001439EF00D11249C012E0F3F1FB4
:10310000842F7B01E0CFE22FF0E0E754FE4F549094
:10311000822F86958695869590E0FC01E755FE4FB7
:1031200064902770712C022E02C0759467940A94E3
:10313000E2F731E063227724FC01E756FE4F8490EA
:10314000912C022E02C0959487940A94E2F7A1E094
:103150008A229924FC01E757FE4FC490D12C02C06B
:10316000D594C7942A95E2F7B1E0CB22DD2461140F
:10317000710419F081EE0E94B0158114910419F0C8
:1031800086EE0E94B015852D0E9447168114910489
:1031900019F086EE0E9456156114710419F081EE43
:1031A0000E945615C114D10409F476CF8CE21FCFCA
:1031B00061E083E090E00E94032D81E00E945C09C1
:1031C0004FCF882321F081E00E94500903C081E0A5
:1031D0000E94270943E062E081E00E94070940CF96
:1031E000882311F082E0F0CF82E0F2CF882321F033
:1031F00083E00E94500934CF83E00E94270930CF3A
:10320000882309F42DCF8091EA0290E0019666E0D0
:1032100070E00E94AE2C8093EA024091EA02509145
:10322000EB026091EC027091ED028FE090E00E9461
:10323000152DE091EA02F0E0EE0FFF1FEE53FE4F76
:10324000808180936C0180936B010ACF882309F4FD
:1032500007CF8091EB0290E0019666E070E00E945B
:10326000AE2C8093EB024091EA025091EB02609108
:10327000EC027091ED028FE090E00E94152DE0913C
:10328000EB02F0E0EE0FFF1FEE53FE4F80818093C4
:103290006A0180936901E4CE882331F08091ED01C9
:1032A00091E089278093ED011092EC011092EB01DF
:1032B000D7CE8091EA0191E089278093EA01F4CF8B
:1032C000F701E851FC47E730F10510F5EB50F24DFE
:1032D0000C94D62C26E241EE61EEC8010E946516E0
:1032E000BFCE27E245EE65EEF8CF26E241EE60EE76
:1032F000F4CF27E245EE64EEF0CF26E241EE62EE37
:10330000ECCF27E245EE66EEE8CF28E241E0EBCFD6
:10331000882309F41BC410922D04C701905783978A
:1033200008F0FFC384E090E00E94FD2C9093E80237
:103330008093E702F701E150F047E232F10520F413
:10334000E450F24D0C94D62C8091E702816080937A
:10335000E70295C08091E80288608093E8028FC000
:103360008091E7028260F3CF8091E7028460EFCF23
:103370008091E7028860EBCF8091E8028160EDCF19
:103380008091E8028260E9CF8091E7028061DFCF1F
:103390008091E7028062DBCF8091E7028064D7CF23
:1033A0000E9460128091E7028068D1CF8091E7028D
:1033B0008C60CDCF8091E8028360CFCF8091E7020F
:1033C0008E7FC5CF8091E802877FC7CF8091E702CB
:1033D0008D7FBDCF8091E7028B7FB9CF8091E702CF
:1033E000877FB5CF8091E8028E7FB7CF8091E802CA
:1033F0008D7FB3CF8091E7028F7EA9CF8091E702C6
:103400008F7DA5CF8091E7028F7BA1CF0E946012B4
:103410008091E7028F779BCF8091E702837F97CFE0
:103420008091E8028C7F99CF8091E70282FB9927F7
:1034300090F921E0922790FB82F990FB83F987CFE6
:103440008091E802982F909591708E7F892B90FB48
:1034500081F983CF9091E702892F8F7B96FF80645B
:1034600076CF0E9460129091E702892F97FB87F92F
:1034700080586DCF61E08EE090E00E94032D609156
:10348000E7027091E80284E090E00E94212D0E9402
:103490006012E6CD60E0EFCF9091E702892F8F7E3A
:1034A00094FF806154CF9091E702892F8E7F90FF27
:1034B00081604DCF9091E802892F877F93FF8860CC
:1034C0004CCF85E33EC38091EE01811104C089E2B7
:1034D0000E94420838C385E3FBCF8091040480FF3B
:1034E00015C08E7F809304046091040470910504DC
:1034F00080910604909107040E941A0E8091310376
:103500008160809331030E942A0BAACD8160809351
:10351000040461E086950E94770FA2CD44EA5FE043
:103520006EEA7FE00E9473059BCD4EEA5FE064EA9D
:103530007FE0F8CF4FE35FE069E47FE0F3CF49E459
:103540005FE06FE37FE0EECF45E25FE062E37FE0C4
:10355000E9CF42E35FE065E27FE0E4CF4BE05FE08C
:1035600068E17FE0DFCF48E15FE06BE07FE0DACF4A
:1035700043E55FE065E67FE0D5CF45E65FE063E5E4
:103580007FE0D0CF61E081E0C6CFF7E7EF16FCE740
:10359000FF0609F41CCE28E7E2162CE7F20609F430
:1035A00023CEF8018281E080F180882309F485C070
:1035B000C7010E949B0DD82E682FC7010E94C60824
:1035C000B7018D2D0E948D0D0E9417077C01882E5A
:1035D000D8011296DC9012971596BC90B2943FE0F9
:1035E000B322809142028770F1F0AD2CDD20E1F032
:1035F0008F2D807F803451F080E28E0D883098F0DE
:10360000B11004C08F2D807E803269F08091E80275
:1036100082FF09C082E00E943409809142028770D3
:10362000AA24A3948111A12C9F2C92942FE0922282
:10363000BBE0B91508F4B0C0E92DF0E0E25EF14D51
:103640000C94D62CBBE5EB16BCE7FB06A1F1ECE530
:10365000EE16ECE7FE0629F1FAE5EF16FCE7FF06A9
:1036600009F09FCF81E024C00E9460122FEF34E365
:103670008CE0215030408040E1F700C000000E9403
:10368000B1046FEF7FEF90E080E00E94212D0E9457
:103690006012EFEFF4E32CE0E150F0402040E1F75E
:1036A0003CC28091E80282FB882780F991E089275B
:1036B0000E944E1776CF80E0FBCFC7010E94920890
:1036C000D82E7ECFEF2DEF70CE2E8F2D807F19F06C
:1036D000C29490EFC922DD20B9F0CC2069F080E2DD
:1036E0008E0D883010F0811009C080914C02C82ADC
:1036F000C0924C020E9423128E2D4CC080914B022E
:10370000C82AC0924B02F6CF8E2D0E945615CC20AF
:1037100009F442C080E28E0D883010F0811004C0A0
:103720008C2D0E943B0806C0C09480914B02C82299
:10373000C0924B020E9423122FC0FF2DFF70CF2E8C
:103740008F2D807F803219F0C29480EFC8228820AC
:1037500089F021E0821609F46CC0DD2009F476C0FE
:10376000BB2009F46CC0F801858180FFC5CF8F7044
:10377000858365C02091E80222FD34C0DD2061F11F
:10378000CC2039F080914C02C82AC0924C020E9491
:10379000231280E00E94B015A92DA850BB0B1497EE
:1037A00010F40E94170CAA2009F4B0CB80914202B9
:1037B00080FDACCBF80112828595859585950E9498
:1037C0005009C8010E947117809142028595859524
:1037D00085950E9427099ACB80E00E945615CC203F
:1037E000D9F29ECFDD2099F090914D028C2D892B3E
:1037F000B11003C00E944C15CFCF31E0B312FACF05
:1038000022FFCACF891741F280934D02C5CFB11074
:1038100006C00E9435088C2D0E944515BDCF81E061
:10382000B81609F4B9CF8C2D0E9445150E943508B1
:10383000B3CFDD2031F095E09B1508F4ADCF8C2D92
:10384000D9CFA4E0AB1508F4A7CFE5CFBB2019F37F
:10385000F9E38F1209C02FEF37EE83E0215030409B
:103860008040E1F700C000008E2D0E94561594CFD5
:103870008F2D86958695837061F0813009F08CCF0D
:10388000C7019370D11002C080E090E00E9405054E
:1038900083CFC7019370D11002C080E090E00E94F6
:1038A0002A057ACF6D2D8E2D0E94321175CF8F2D66
:1038B000837091F5D11070CF4E2D4295469547708B
:1038C000440F440F8E2D8F70042E01C0880F0A9470
:1038D000EAF72E2D2071E4FE07C02FE030E001C092
:1038E000220F4A95EAF720953F2D3695369533708D
:1038F000323069F050F440914E02313029F0822B81
:1039000084230E945C0948CF842B822BFACF282B7A
:1039100080914E028227F5CF8695DD2011F08F2D04
:103920008170882309F438CF4E2D42954695477013
:10393000440F440F8E2D8F70042E01C0880F0A94FF
:10394000EAF72E2D2071E4FE07C02FE030E001C021
:10395000220F4A95EAF720953F2D3695369533701C
:10396000323069F050F44091E602313029F0822B78
:1039700084230E94FD0810CF842B822BFACF282BA2
:103980008091E6028227F5CF9F2D9F70F92EDD20D2
:1039900029F0892F0E9450098E2D2CCF8E2D0E9448
:1039A00045158F2D0E942709F7CE8E2DA2EF8A167E
:1039B000B1F1A81570F0B0EF8B16D1F0E1EF8E16D3
:1039C00091F0DD2009F45EC0B11096CE8F2D8F717D
:1039D0002AC0F3EF8F1651F124EF8212F2CF8091BB
:1039E000E80282FD2FC08F2D8F71DD20D9F21BC020
:1039F000DD2081F034E03B1508F4CECE2F2D2F7161
:103A000081E090E001C0880F2A95EAF79091E602E4
:103A10008927AFCF85E08B1508F4BECEEFCF8F2D71
:103A20008F71D110BFCF0E945009B6CE80E0DD204B
:103A300009F49FCF9F2D9F7181E001C0880F9A9557
:103A4000EAF797CFDD2099F09F2D9F71F92E892FEE
:103A50000E9450098091E80282FF07C0A8E0FA9E08
:103A6000C00111248360809342028F2DDCCF81E05E
:103A70000E943409B1E0BB1508F08ECE82E00E94AE
:103A800034098ACEBB2059F0893309F0EDCEEFEF2F
:103A9000F7EE23E0E150F0402040E1F7E3CE8F2D38
:103AA0008F7180CF85E0F801DE01119601900D92B3
:103AB0008A95E1F7D80112962C9189819A8121117A
:103AC00029CA0E949208F82E2DCAB7E7EB16BCE768
:103AD000FB0609F478CBE8E7EE16ECE7FE0609F4FE
:103AE00081CB33E0E3163CE7F30609F4CACD08F0D6
:103AF000A9CDE1149CE7F90609F4B6CDA1E0EA16D8
:103B0000ACE7FA0609F04DCD0E9460129FEFA4E3E6
:103B1000BCE09150A040B040E1F700C000000E941E
:103B2000A604F6E1EF16FCE7FF0679F680914C0259
:103B30008A7A91E009F490E09093EE018111C1CC72
:103B400089E20E944F080E9423128ACA26E1E216E7
:103B50002CE7F20609F4B7CC80914C028272F7018F
:103B6000E052F847E531F10508F00FCDE65DF14D83
:103B70000C94D62CF701FE57E830F10508F0A0CBE5
:103B8000E15CF14D0C94D62CF701FE57E830F105BD
:103B900008F096CBE95BF14D0C94D62C1F93CF9394
:103BA000DF9380910F02807F09F04BC080910C025F
:103BB000882309F446C080914102C09110024091CF
:103BC0000A0250910B0260910D0270910E02D42FE7
:103BD000D52316E0C817A9F190E061157105A9F188
:103BE000DF3F99F1189FF001199FF00D1124DF01BB
:103BF000AF5EBD4F11962C911197251326C02C91C5
:103C0000241323C012962C91129721111EC01396D3
:103C10002D913C91261B370B28373105B0F480914C
:103C20000F028F70806180930F02EA5EFD4F8081EA
:103C30008F70806180838AE092E00E9471170E94F9
:103C40008808DF91CF911F91089501968770C2CFA8
:103C5000A1E1B0E0EEE2FEE10C946F2C8C0185E076
:103C6000F801DE011D9601900D928A95E1F7F801A9
:103C7000E2808AE0882E82E0982E40910D025091D9
:103C80000E024115510509F430C190910A022091AC
:103C90000B02892F82238F3F09F427C1D080C18076
:103CA000A380B480F0900C02B501641B750BFF205B
:103CB00009F4E7C080910F02382F307F6837710513
:103CC00008F0ABC0311178C0FE2C2C1114C09D112E
:103CD00012C0E11010C08F70806180930F02C40188
:103CE0000E94711780910F02F80185838F2D6196D4
:103CF000ECE00C948B2CA114B104C9F18D2D8C2116
:103D00008F3FA9F181E08E2580FF05C04E2D6C2DDF
:103D10008D2D0E946808A114B10459F18D2D8C21BC
:103D20008F3F39F181E08E25F82FF170BF2E80FF93
:103D300039C04E2D6C2D8D2D0E946808A82E811142
:103D400031C0DD86CE868D859E850E94CA0D292FC5
:103D500022952F70243078F49F702230A8F0992398
:103D6000B9F0F8019581907F99F4FA2CBFCF80E0EB
:103D7000CBCF80E0D9CF2A5F2F70223068F0C80106
:103D80000E947117AB2CF1CF992311F0882369F3AE
:103D9000805E883050F3F3CF803F38F3815F83300B
:103DA00070F7E3CFEE2009F4A1CF80910F0281607C
:103DB00080930F02F12C9ACF2C1105C09D1103C0E6
:103DC000EE2009F477C0C8010E94D70D882309F1BD
:103DD000EE20F9F080910F02803270F020910A02FB
:103DE00030910B0238872F831986BB86AA868C8771
:103DF000CE0107960E94711786E0F801AAE0B2E0B2
:103E000001900D928A95E1F70E94CE1DFF24F39454
:103E10006DCFC8010E947117F9CF31110AC08AE035
:103E200092E00E94711786E0F40111928A95E9F7F9
:103E3000C1CF2C110EC09D110CC0E1100AC08583AA
:103E4000C8010E94711786E0F40111928A95E9F782
:103E50004DCFC8010E94D70D8823D9F2EE20C9F2B8
:103E600080910F02803240F220910A0230910B02C1
:103E70003A8329831B82BD82AC828E83CE01019658
:103E8000B9CF68377105F8F6FE2CEE2011F22C112F
:103E90001EC09D111CC080910F0280FD0FC0982F85
:103EA000907F61F08583903F31F0982F907F905FF5
:103EB0008F70892B8583C8010E94711786E0F801F5
:103EC000AAE0B2E001900D928A95E1F70FCFC80108
:103ED0000E94D70D811190CF80910F028160809355
:103EE0000F02C8010E94711701CFEE2009F491CF93
:103EF000C8010E94D70DF82E882309F48ACF86E0E6
:103F0000F801AAE0B2E001900D928A95E1F7809164
:103F10000A0290910B020E94CA0D0E94CE1DE6CEAD
:103F2000A7E1B0E0E6E9FFE10C94782C4B8B5C8BC9
:103F30006D8B7E8B8F8B611110924B021A8A198ABE
:103F400085E0FE017396DE011D9601900D928A9523
:103F5000E1F786E0FE013D96DE01179601900D9295
:103F60008A95E1F7CE0107960E94281E882359F012
:103F700016E08091410290911002891343C0679628
:103F8000E3E00C94942C86E0FE013796DE01119656
:103F900001900D928A95E1F78A859B85892B41F3E3
:103FA0008F81988589238F3F19F32091100230E08B
:103FB000C901019687709927409141024817190657
:103FC00071F40E946012109210021092410286E079
:103FD000EAE0F2E0DF011D928A95E9F7C9CF96E0A9
:103FE000929FD001939FB00D1124AF5EBD4FFE0193
:103FF000319601900D929A95E1F7809310020E94FC
:104000008808B6CF819FC00111248F5E9D4F0E940A
:10401000281E882309F4B3CF8091410290E00196D5
:104020008770992780934102A4CFA5E0B0E0EBE12F
:10403000F0E20C94772C0E94F9048C0180914F02DD
:104040009091500280179107A1F08FEF89838A83A6
:104050001B820E94F9048160782F9D838C834981A3
:104060005A816B818D810E94901F109350020093A2
:104070004F022596E4E00C94932CA9E1B0E0E3E430
:10408000F0E20C946E2C8E010F5F1F4F8AE0D80176
:104090001D928A95E9F786EBC82E81E0D82EF12C87
:1040A000E12CAA24A394B12C22EC822E21E0922EA2
:1040B000F60181916F018F3F09F442C0F894E82F17
:1040C000E295EF70F0E021A18F70A50102C0440FCE
:1040D000551F8A95E2F7CA01922F982B91A392A1BE
:1040E0008095892382A3789400C0EBEBF1E0712CDA
:1040F00031E021912F3F09F46BC0A22FA295AF7040
:10410000B0E090968C9190E02F7002C095958795C5
:104110002A95E2F780FD5CC0832F782A330F8E1634
:104120009F0639F7F601319780818F3F11F00E9489
:104130001B0650EA5A95F1F7F801EE0DFF1D70824B
:104140008FEFE81AF80AA5E0EA16F10409F0B0CFFB
:104150004AE050E0B8018AED92E00E94D32D00972A
:1041600041F02AE0F801AAEDB2E001900D922A9503
:10417000E1F70091E502892B69F181E08093530218
:104180000E94F9049093520280935102809151024F
:10419000909152020E94DE04059700F110E00F5F3B
:1041A0001C4F45E050E06AED72E0C8010E94D32D3B
:1041B000D12C892B51F085E0EAEDF2E0D801019095
:1041C0000D928A95E1F7DD24D3941092530207C033
:1041D00080E0A3CF809153028111D8CFD12C0E94CF
:1041E000F20BC82EE091E502882309F489C07E0114
:1041F000BBE0EB0EF11C85E0D7011D928A95E9F733
:104200000E2F10E00F5F1C4F8091D5028A3008F00E
:1042100044C042EC53E2B701C8010E94BF0B88239F
:1042200009F45DC044EF52E2B701C8010E94BF0B20
:10423000882309F454C04BEA52E2B701C8010E9436
:10424000BF0B882309F44BC046E953E2B701C8010C
:104250000E94BF0B882309F442C044E852E2B70130
:10426000C8010E94BF0B8823D1F11092D502809122
:10427000E40290E045E050E0B7018F5F9C4F0E9460
:10428000D32D21E020935E02892BE1F4C12C8C2DEB
:104290008D296996EDE00C948A2C809154029091BE
:1042A00055020E94DE04843F914008F0B2CF809115
:1042B0005E02882359F385E0F70111928A95E9F7A8
:1042C00010925E02A091E402B0E0AF5FBC4F85E0C7
:1042D000FE013B9601900D928A95E1F7D8CF80912F
:1042E000D5028F3F31F08F5F8093D5028A3008F47A
:1042F000BECF0E94F9049093550280935402D7CF09
:10430000F0E0EF5FFC4F85E0A1E6B2E001900D9296
:104310008A95E1F765E070E081E692E00E945D0534
:10432000809360028090660290906702A09068027D
:10433000B090690280915A0290915B02A0915C0258
:10434000B0915D0288169906AA06BB06D1F080924C
:104350005A0290925B02A0925C02B0925D020E94AF
:10436000F20B81110EC00E94ED04861A970AA80A6A
:10437000B90A8092D6029092D702A092D802B09247
:10438000D90288E0EAE6F2E0DE011B9601900D9288
:104390008A95E1F780916A02869500916B02F09010
:1043A0006C02E0906D021091710210927102112363
:1043B000A9F010FF0BC09B8590FF5BC09091040497
:1043C00091609093040460E00E94770F11FF06C093
:1043D00020E04E2D6F2D802F0E942D0E60915602F1
:1043E0007091570280915802909159020E94C20424
:1043F000672B682B692BC1F10E94ED046093560274
:1044000070935702809358029093590289E0E2E733
:10441000F2E0DE011B9601900D928A95E1F7FE0114
:10442000749686E0DF011D928A95E9F74C895D89D3
:104430006E897F89888D998D0E949C0C2C873D8781
:104440004E875F87688B798B66E070E0CE010C96B3
:104450000E945D058B8789E0FE013B96A2E7B2E0F2
:1044600001900D928A95E1F780917B028093FF0283
:104470000ECF0E94B20BAACFB0E0A0E0E2E4F2E2DD
:104480000C94742C7901C82F880FDD0B4115510550
:10449000A9F0FE0193E0EE0FFF1F9A95E1F7E050BF
:1044A000FF4F81819281805A9D4F208130E04217D9
:1044B000530708F49A01A9010E94E02DCE010E9441
:1044C000F02BD82E8823D1F001151105B9F083E027
:1044D000CC0FDD1F8A95E1F7FE01E050FF4F4381CD
:1044E00050E00417150708F4A801C050DF4F6C8195
:1044F0007D81605A7D4FC7010E94E02D8D2DCDB783
:10450000DEB7E7E00C94902CA1E0B0E0EAE8F2E23C
:104510000C94772C81E089838091D5028A3090F0C9
:104520001092FF0210E000E030E020E041E050E0B7
:10453000BE016F5F7F4F87E00E943C22898380939A
:10454000FF0204C08091FF02882361F389812196D4
:10455000E4E00C94932CA8E0B0E0E1EBF2E20C94E0
:10456000772C85E0E4E0F4E0DE01119601900D92F5
:104570008A95E1F780912F0390913003A091310348
:104580008E839F83A88718856091CD027091CE029B
:104590008091CF029091D0020E94C20464367105CE
:1045A0008105910510F41123C1F010E000E030E026
:1045B00020E048E050E0BE016F5F7F4F83E00E9443
:1045C0003C22882369F00E94ED046093CD02709331
:1045D000CE028093CF029093D0021092310381E0FB
:1045E0002896E4E00C94932CA4E0B0E0EAEFF2E229
:1045F0000C94772C6091C9027091CA028091CB0211
:104600009091CC020E94C20411E0643671058105CC
:10461000910538F10E94F20B882341F10E94ED04CC
:104620006E5F7F4F8F4F9F4F69837A838B839C830D
:1046300010E000E030E020E044E050E0BE016F5FB9
:104640007F4F82E00E943C22182F882351F00E9465
:10465000ED046093C9027093CA028093CB029093D9
:10466000CC02812F2496E4E00C94932C0E94ED045C
:104670000091D6021091D7022091D8023091D90230
:10468000600F711F821F931FCBCFA1E0B0E0EBE45E
:10469000F3E20C946E2C762E4A015901680101E078
:1046A00010E09E012F5F3F4F50E040E070E060E07F
:1046B0000E943C22182F882399F1F40160817181B6
:1046C000828193810E94C20464367105810591053F
:1046D00038F4B701C6010E945D059981891701F17F
:1046E0008701950150E040E070E060E0872D0E9476
:1046F0003C22B82EB701C6010E945D0511E09981E8
:10470000981310E01B2139F00E94ED04F40160833E
:10471000718382839383812F2196EDE00C948A2C00
:10472000A701B601C5010E94E02DF5CFACE0B0E0D5
:10473000ECE9F3E20C94752C86E0E82EF12C03E70B
:1047400012E09E01295F3F4F41ED52E065E084E0B9
:104750000E944523882391F096E0FE013796DE0102
:10476000119601900D929A95E1F796E0FE0131962F
:10477000AEE1B3E001900D929A95E1F72C96E6E058
:104780000C94912CA5E0B0E0E8ECF3E20C94732CCF
:104790006B0185E0E82EF12C01E612E09E012F5F0F
:1047A0003F4F45EC52E061E080E00E9445238823C2
:1047B00049F095E0FE013196A0ECB2E001900D9237
:1047C0009A95E1F795E0E0ECF2E0D60101900D92C8
:1047D0009A95E1F72596E8E00C948F2C1F920F92A2
:1047E0000FB60F9211242F933F934F935F936F93C4
:1047F0007F938F939F93AF93BF93CF93DF93EF9369
:10480000FF93D091E900DF708091EC00C82FC17058
:1048100080FDC0E81092E9008091F000877F8093CE
:10482000F00078940E9487121092E9008091F000C5
:1048300088608093F000CD2BCF70C093E900FF918A
:10484000EF91DF91CF91BF91AF919F918F917F9128
:104850006F915F914F913F912F910F900FBE0F90ED
:104860001F9018951F920F920FB60F9211242F933D
:104870003F934F935F936F937F938F939F93AF93E8
:10488000BF93EF93FF938091E10082FF09C0809175
:10489000E20082FF05C08091E1008B7F8093E10000
:1048A0008091DA0080FF24C08091D80080FF20C072
:1048B0008091DA008E7F8093DA008091D90080FFAA
:1048C0009DC080E189BD82E189BD09B400FEFDCFB4
:1048D00081E08093210480911404811109C00E9419
:1048E00049030E94EA038091E20084608093E20021
:1048F0008091E10080FF17C08091E20080FF13C02B
:104900008091E2008E7F8093E2008091E2008061DE
:104910008093E2008091D80080628093D80019BC17
:1049200085E0809321048091E10084FF2BC0809179
:10493000E20084FF27C080E189BD82E189BD89B59D
:10494000982F917080FFFBCF8091D8008F7D80934E
:10495000D8008091E1008F7E8093E1008091E20099
:104960008F7E8093E2008091E20081608093E2007C
:1049700080912204882309F447C084E080932104B5
:10498000809121048091E10083FF27C08091E200A3
:1049900083FF23C08091E100877F8093E10082E064
:1049A00080932104109222048091E1008E7F8093F5
:1049B000E1008091E2008E7F8093E2008091E2002E
:1049C00080618093E20042E060E080E00E94B803F2
:1049D0008091F00088608093F000FF91EF91BF918B
:1049E000AF919F918F917F916F915F914F913F9187
:1049F0002F910F900FBE0F901F90189519BC109219
:104A000021041092140474CF8091E30087FD93E099
:104A100090932104B5CF78941F921FB61F92112452
:104A20008F939F93AF93BF93809110049091110443
:104A3000A0911204B09113040196A11DB11D8093A1
:104A4000100490931104A0931204B0931304BF9127
:104A5000AF919F918F911F901FBE1F9018951F922D
:104A60001FB61F9211248F939F93AF93BF93809192
:104A70000F04811113C08091100490911104A09132
:104A80001204B09113044196A11DB11D809310042E
:104A900090931104A0931204B0931304BF91AF91AB
:104AA0009F918F911F901FBE1F901895CDB7DEB7B5
:104AB000A5970FB6F894DEBF0FBECDBF85B780684F
:104AC00085BF85B7806885BF84B7877F84BF0FB6F1
:104AD000F894A8958091600088618093600010929E
:104AE00060000FBE80E890E00FB6F89480936100FC
:104AF000909361000FBE8DEE95E09093E10180935D
:104B0000E0010E9449030E94EA038091E200846070
:104B10008093E2007894809121048823A1F0109181
:104B2000E9001F709091EC00892F817090FD80E862
:104B3000182B1092E9008091E80083FD0E948712F3
:104B40001F701093E90082E084BD93E095BD9AEF59
:104B500097BD80936E001092D6021092D7021092E9
:104B6000D8021092D9020E94010E811102C00E9447
:104B70004E0D0E94F20B809368018091680188239A
:104B800009F471C01092750183E2809376010E944E
:104B9000F20B81110E94FF2A8091680180916801C7
:104BA00095E0811190E09093E50285E0891B809368
:104BB000E40206EB11E0EBEBEE2EE1E0FE2ED80175
:104BC0008D918D018F3F11F00E941B06E016F106BA
:104BD000B1F70BEB11E072ECE72E71E0F72EF80164
:104BE00081918F018F3F11F00E941B06E016F106A4
:104BF000B1F78AE0E1E0F3E0DF01282F1D922A956A
:104C0000E9F7EAEDF2E0DF011D928A95E9F70E94EB
:104C1000C2160E946517811102C00E94F11682E03F
:104C200090E00E94EF2C8093F00284E090E00E94DC
:104C3000FD2C9093E8028093E7020E943D20EFE371
:104C4000FCE93197F1F700C000000E943D208091FF
:104C5000010380FF0CC06FEF7FEF90E080E00E94C7
:104C6000212D0E94B10483E2809375018ECF83E0F1
:104C700090E00E94EF2C0E945C098091E902811172
:104C800036C00E946517811104C00E94F1160E946F
:104C9000B30F88E090E00E94F72C609304047093B7
:104CA0000504809306049093070480913103836088
:104CB000809331036E7F71F40E94B30F88E090E01F
:104CC0000E94F72C609304047093050480930604FB
:104CD000909307040E9479058091040480FF04C02A
:104CE00060E086950E94770F81E08093E9020E9440
:104CF000F20B81110CC00E94022B0E94ED04609304
:104D0000FB027093FC028093FD029093FE02FFE78A
:104D10002FEA42E0F15020404040E1F700C000009F
:104D200026982E983E9A519A819A52985A98469A65
:104D3000599A899A5A9A0E943E0C8FE79FEAA2E0FC
:104D400081509040A040E1F700C000000E943E0C5E
:104D5000BFE7EFEAF2E0B150E040F040E1F700C019
:104D600000000E947A0C83E190E00E94F72C60938F
:104D7000EA027093EB028093EC029093ED02E62F2F
:104D8000F0E0EE0FFF1FEE53FE4F808180936C0129
:104D900080936B01E72FF0E0EE0FFF1FEE53FE4F05
:104DA000808180936A01809369018DE691E0909300
:104DB0000C0480930B0458E1452E512C81E093E0C4
:104DC0006AE0362E380E3E0120E2620E711C8091A0
:104DD00021048530B1F420E4F22EEE24E39400E1C6
:104DE00012E180912104853009F457C00E946012BD
:104DF0000E94170C1092EF028091EE0281110E9426
:104E00009A0F0E943D2081EFE82E82E0F82E91E07B
:104E1000C92E93E0D92ED601F70191918D9122E010
:104E2000EB3FF20709F47DC09817B9F30E94F20B2B
:104E3000882E10E0D6010D916D01F70191907F0150
:104E4000901629F19026B12CAA24A3948A2D8921A9
:104E5000B1F08820A1F0B9A21AA391E08A2D802395
:104E600009F490E09BA30E94F9048160782F9DA330
:104E70008CA349A15AA16BA18DA10E94901FB3944C
:104E8000AA0CF7E0BF12E2CFF701319700831F5F52
:104E90001A3081F60E94ED0448C0809121048430CC
:104EA00009F430C08091EF02811109C0E092EF0255
:104EB0008091040481708093EE020E94B20B0E94E4
:104EC000ED0F10920F040FB6F894A8954092600071
:104ED0000FBEF092600083B7817F846083BF83B789
:104EE000816083BF7894889583B78E7F83BF0FB628
:104EF000F894A8958091600088618093600010927A
:104F000060000FBE80912004882309F46ACF0E94BC
:104F10003D20E1E0F3E081918111E1C23E12FBCF3F
:104F200060CF981383CF0E9415200E94F20B8091CE
:104F3000FF02811115C00E94F20B811111C0609116
:104F4000FB027091FC028091FD029091FE020E9492
:104F5000C204693B7B408105910510F00E94A604C4
:104F600086E0E8E1F3E0DE01119601900D928A956A
:104F7000E1F710921A0310921B0310921C03109277
:104F80001D038B819C81892B09F44AC080911003F9
:104F9000909111030E94DE049C0190910B039923D0
:104FA00009F4CAC225313105D8F19F3F19F09F5F3E
:104FB00090930B031B81112359F00E94CD059FEFA5
:104FC00011160CF491E0899F802D112480931A030F
:104FD0001C81112359F00E94CD059FEF11160CF48E
:104FE00091E0899F802D112480931B0330911A0337
:104FF0003323B1F020911B03222391F045EB3403BE
:10500000C0011124992309F4B0C090931A0345EB11
:10501000240390011124332309F4ABC030931B0304
:105020008D819E81892B09F44AC080910E03909155
:105030000F030E94DE049C0190910C03992309F454
:1050400076C221353105D8F19F3F19F09F5F9093CB
:105050000C031D81112359F00E94AB059FEF11161F
:105060000CF491E0899F802D112480931C031E81F4
:10507000112359F00E94AB059FEF11160CF491E03B
:10508000899F802D112480931D0330911C033323AD
:10509000B1F020911D03222391F045EB3403C001B0
:1050A0001124992309F469C090931C0345EB240350
:1050B00090011124332309F464C030931D0346E0AA
:1050C00050E0BE016F5F7F4F88E193E00E94D32DD7
:1050D000892B61F480911A0390911B03892B909185
:1050E0001C03892B90911D03892B11F00E948F05C1
:1050F00086E0FE013196A8E1B3E001900D928A9519
:10510000E1F70E94ED0F0E94170C909100038917A0
:1051100021F0809300030E94ED04809121048430EB
:1051200009F055CE83E08093E9008091E80082FF8A
:105130004ECE8091E80090E085FF05C00E94680394
:10514000882319F191E08091E8008B778093E80043
:10515000992309F43CCE8981EFEFE80FE331E0F5C4
:10516000F0E0E15BF14D0C94D62C81E080931A03C2
:105170004ECF81E080931B0353CF81E080931C03CB
:1051800095CF81E080931D039ACF00E210E0CE011D
:1051900001967C018091E80085FD0AC08091E800BD
:1051A0008B778093E8000E946803882399F3CACF25
:1051B0008091F100D7018D937D010150110951F7C4
:1051C000C1CF1A828CE08B831BC08A81823009F4A4
:1051D000A5C128F4813061F08FEF898311C083303D
:1051E000C1F08430C9F71B821C821D821E8208C058
:1051F0000E94ED040E94DC2C6B837C838D839E8354
:1052000040E250E0BE016F5F7F4F82E00E94CD0A16
:10521000DECD8B8190E0FE0134968A30910580F7D7
:10522000DC01AF5FBC4F2C9121930196E615F70589
:10523000A1F7E6CF8A81823049F0853069F6809106
:10524000040480FF0EC00E94B20BDACF6B817C8118
:105250008D819E810E94DC2C85E290E00E94032DCE
:10526000CFCF0E949A0FCCCF4C816B818A810E9454
:105270005E0D9827892798279E838D83C1CF2D8126
:105280003E813227232732274C816B818A810E94FD
:10529000D70CB6CF0E94FD0CB3CF9A81923009F0A3
:1052A0009BCF8830B1F1893009F45EC08B818230A8
:1052B00009F1A8F4813009F0A3CF8C81B6E98B9F66
:1052C000C00111246FEF70E00E94AE2C462F20E049
:1052D00060910604809105040E942D0E91CF8330C9
:1052E000A1F0843009F08CCF20E0409107046D815B
:1052F0008C81F2CF8C81882309F4A5CF0E949A0F6C
:1053000060E08C810E94770F7BCF8C8180930804B2
:1053100077CF8B818230E1F078F4813009F070CF63
:1053200080910704EFEF8E9FC001112466E970E0C1
:105330000E94AE2C6C8364CF833099F0843009F0E6
:105340005FCF809105048C83809106048D8358CFB4
:105350008091040480FF03C086958C8351CF80E048
:10536000FCCF80910804F9CF60910404709105048A
:1053700080910604909107040E941A0E41CF80E1AB
:105380008A833ECF81E08A838AEA1DCFEA80FB8050
:10539000FE24EF24FE24AC80B12C4701FAEA8F1AD8
:1053A000FDEF9F0ACE0101966C0110E000E0C40100
:1053B000800F911F0A151B0508F022CF9701200FBF
:1053C000311F2A3A314050F40E94EF2CF6018483B9
:1053D0000F5F1F4FBFEFCB1ADB0AE9CFD601149640
:1053E0001C92F6CFEA80FB80FE24EF24FE24CC80C2
:1053F000D12C5701EAEAAE1AEDEFBE0A10E000E048
:10540000C501800F911F0C151D0508F0F9CE9701FD
:10541000200F311F2A3A314048F4E1E0F0E0EC0F70
:10542000FD1FE00FF11F64810E94032D0F5F1F4FCE
:10543000E7CF0E94C70CE4CE84E0A2CFCA80DB8015
:10544000DC24CD24DC24AC80B12C460126E2820E83
:10545000911CCE0101967C0110E000E0C401800F98
:10546000911F0A151B0508F0CBCE98012C0D3D1D90
:105470002033324050F40E94EF2CF70184830F5FF9
:105480001F4FBFEFEB1AFB0AE9CFD70114961C920E
:10549000F6CFEA80FB80FE24EF24FE24CC80D12CC2
:1054A0005701E6E2AE0EB11C10E000E0C501800F2E
:1054B000911F0C151D0508F0A3CE9701200F311F79
:1054C0002033324048F4E1E0F0E0EC0FFD1FE00F44
:1054D000F11F64810E94032D0F5F1F4FE7CF09BDAD
:1054E00019BD09B400FEFDCF8091D8008F7D809357
:1054F000D8008091E00082608093E0008091E0001D
:1055000081FDFCCF0E9460124FEF83ED90E341508C
:1055100080409040E1F700C0000063CC85E290E05D
:105520000E94EF2C1B821C821D828E8369CE2B3041
:10553000310508F08BCDC3CD2B30310508F037CDC8
:105540006FCD84E1489B02C08150E1F7489BFECFBC
:105550000895589885E18A95F1F70000589A0895C2
:10556000FC013BE03A95F1F7000098E020E080E094
:1055700031E04AE04A95F1F700C0880F489B02C02D
:105580008160232742E04A95F1F700004AE04A95FE
:10559000F1F700C0915069F79AE09A95F1F700C0D1
:1055A00099B132E03A95F1F700004AE04A95F1F7F7
:1055B00000C0917092272081920F90830895A1E0FE
:1055C000B0E0E5EEFAE20C94752C19828C017C01B6
:1055D000E60EF11C0E151F0541F481E09981911131
:1055E00080E02196E6E00C94912C0E94A12ACE0145
:1055F00001960E94B02AF80181938F01EBCF509A57
:10560000589A08955098589AE89AE9E6F0E080810F
:105610008C7F808308956150770B91E001C0990FD2
:105620006A95EAF720E031E0911109C02223A1F048
:10563000589A85E18A95F1F7000058980895492F06
:10564000482341F0589A232745E14A95F1F7000095
:105650009695EACF5898F8CF5898EBCFFF920F93D2
:105660001F93CF93DF93EC018C01060F111DC01720
:10567000D10729F4CDB7DEB7E5E00C94922CF99070
:105680000E94A92A68E08F2D0E940B2BF0CF1F9259
:105690000F920FB60F9211240F931F932F933F93E6
:1056A0004F935F936F937F938F939F93AF93BF932A
:1056B000EF93FF93CF93DF930F92CDB7DEB71982AD
:1056C0000E94A12ACE0101960E94B02A082F0695B9
:1056D00006950695282F22952570902F9570290FF5
:1056E000922F937026952695920F9827977089810F
:1056F000982B09F05FC00E3008F05CC08AE08A95F4
:10570000F1F700C0589A509A82E08A95F1F700C0EC
:10571000589888E0089F80011124D801A050BF4FFD
:105720001696ED91FC9117973097A9F06091B4010E
:105730007091B50114962D913C911597260F371F46
:1057400011968D919C911297680F791F13964C9129
:1057500013978C910995F801E050FF4F6381662300
:1057600051F02091B4013091B50184819581820F6F
:10577000931F0E942E2B0E94A92A8AE08A95F1F796
:1057800000C058985098589A8AE08A95F1F700C05E
:10579000F801E050FF4F6081662351F02091B40181
:1057A0003091B50181819281820F931F0E94DF2A7F
:1057B0000E94A12A0F90DF91CF91FF91EF91BF91AD
:1057C000AF919F918F917F916F915F914F913F9199
:1057D0002F911F910F910F900FBE0F901F90189552
:1057E0000F931F93CF93DF93EC010E970CF04DC0F6
:1057F000F894509A589885E08A95F1F700009C2F0C
:10580000969595708C2F8570980F892F837096953B
:10581000969523E0CC0FDD1F2A95E1F7980F8E01B6
:10582000092B0E94A92A00C068E0802F0E940B2B40
:105830008AE08A95F1F700C05098589A489B1EC09C
:1058400087E090E048991CC0FE01E050FF4F638163
:105850006623F9F02091B4013091B50184819581DE
:10586000820F931F0E94DF2A811113C0509A589A09
:105870007894DF91CF911F910F91089500C0DECFF2
:10588000019729F4509A589A789480E0F2CF00C09A
:10589000D9CF0E94A12A85E18A95F1F70000589896
:1058A000509A8AE08A95F1F700C0C050DF4F6881B6
:1058B000662351F02091B4013091B50189819A811C
:1058C000820F931F0E942E2B0E94A92A789481E0B8
:1058D000D0CF2F923F924F925F926F927F928F9292
:1058E0009F92AF92BF92CF92DF92EF92FF920F936F
:1058F0001F93CF93DF93CDB7DEB7CA1BDB0B0FB679
:10590000F894DEBF0FBECDBF09942A883988488835
:105910005F846E847D848C849B84AA84B984C884CB
:10592000DF80EE80FD800C811B81AA81B981CE0FC2
:10593000D11D0FB6F894DEBF0FBECDBFED010895A7
:1059400087FB082E062687FD819567FD61950E94DD
:10595000E32C0EF4919507FC81950895AA1BBB1BBF
:1059600051E107C0AA1FBB1FA617B70710F0A61B5F
:10597000B70B881F991F5A95A9F780959095BC0180
:10598000CD01089597FB072E16F4009407D077FDFC
:1059900009D00E94AE2C07FC05D03EF4909581956D
:1059A0009F4F0895709561957F4F0895EE0FFF1FEB
:1059B0000590F491E02D09946927962769277827A7
:1059C000872778270895991B79E004C0991F9617B7
:1059D00008F0961B881F7A95C9F780950895F99964
:1059E000FECF92BD81BDF89A992780B50895A6E1B2
:1059F000B0E044E050E00C94292DA8E1B0E042E092
:105A000050E00C94292D262FF999FECF92BD81BD2F
:105A1000F89A019700B4021639F01FBA20BD0FB6EC
:105A2000F894FA9AF99A0FBE08950396272F0E94C8
:105A3000042D0E94032D252F0E94042D242F0C9449
:105A4000042D0196272F0E94042D0C94032DDC01B8
:105A5000CB01FC01F999FECF06C0F2BDE1BDF89A79
:105A6000319600B40D9241505040B8F708950E940D
:105A70003E2D6894B1110C94CD2D08950E94B22D45
:105A800088F09F5798F0B92F9927B751B0F0E1F0FF
:105A9000660F771F881F991F1AF0BA95C9F714C0AF
:105AA000B13091F00E94CC2DB1E008950C94CC2D32
:105AB000672F782F8827B85F39F0B93FCCF38695E8
:105AC00077956795B395D9F73EF490958095709545
:105AD00061957F4F8F4F9F4F0895E89409C097FBC2
